:020000042000DA
:10000000884900204D06002051060020530600209C
:100010005506002057060020590600200000000069
:100020000000000000000000000000005B0600204F
:1000300000000000000000005D0600205F060020B8
:1000400000000000000000000000000000000000B0
:1000500000000000000000000000000000000000A0
:100060000000000000000000000000000000000090
:100070000000000000000000000000000000000080
:100080000000000000000000000000000000000070
:100090000000000000000000000000000000000060
:1000A0000000000000000000000000000000000050
:1000B0000000000000000000000000000000000040
:1000C0006106002063060020650600206706002008
:1000D000690600206B0600206D0600206F060020D8
:1000E00071060020730600207506002077060020A8
:1000F000790600207B0600207D0600207F06002078
:100100008106002083060020850600208706002047
:100110008906002000000000000000000000000030
:1001200000000000000000000000000000000000CF
:1001300000000000000000000000000000000000BF
:1001400000000000000000000000000000000000AF
:10015000000000000000000000000000000000009F
:10016000000000000000000000000000000000008F
:10017000000000000000000000000000000000007F
:100180000000000000000000000000008B060020BE
:100190008D0600208F060020910600209306002087
:1001A0009506002097060020990600209B06002057
:1001B0009D0600209F060020A1060020A306002027
:1001C000A5060020A7060020A9060020AB060020F7
:1001D000AD060020AF060020B1060020B3060020C7
:1001E000B5060020B7060020B9060020BB06002097
:1001F000BB040020BF060020C1060020C30600206B
:10020000C5060020C7060020C9060020CB06002036
:10021000CD060020CF060020D1060020D305002007
:10022000D5060020D7060020D9060020DB060020D6
:10023000DD060020DF06002000F002F800F03AF8AA
:100240000AA090E8000C82448344AAF10107DA4531
:1002500001D100F02FF8AFF2090EBAE80F0013F049
:10026000010F18BFFB1A43F001031847FC070000F9
:100270001C080000103A24BF78C878C1FAD8520789
:1002800024BF30C830C144BF04680C607047000010
:100290000023002400250026103A28BF78C1FBD88F
:1002A000520728BF30C148BF0B6070471FB51FBD44
:1002B00010B510BD00F09EFA1146FFF7F7FF00F0F1
:1002C00009F800F0BCFA03B4FFF7F2FF03BC00F03A
:1002D000C3FA00001548810708608007C06840F431
:1002E0007830C860114812490860C01788634FF41D
:1002F0007F410F480163006940F440200C490861C8
:100300000846006C40F440200864F0210848C165AC
:100310000AE00748806840F44020054988600846A4
:10032000C06840F44020C860F3E70000A1AA5585EA
:100330000040084000206F4908706F48810708603E
:100340008007006940F0400008616C486C49086013
:100350000B206C494862002088626020C86210202F
:10036000886340F2013008638007C06840F40000F1
:100370008904C8606448C1F830014FF47A70634959
:1003800088600120C8606C2000F01F0201219140AC
:100390004209920002F1E022C2F8001100BF70474A
:1003A00010B50A460FE010F8013B594C647883EA17
:1003B0000401574B1B78574C645C6340544C63708A
:1003C000554B5B5C2370131EA2F10102EBD110BDF3
:1003D000F0B507460E4615464A48006B20F40070FB
:1003E000484908631DB131463846FFF7D9FF00245C
:1003F00014E000BF4348806900F080000028F9D075
:10040000385D4049086000BF45F255504FF040212B
:1004100008604000086000BF601CC4B2B442E8DB62
:10042000ADB100BF3748806900F080000028F9D0E6
:10043000374840783349086000BF3248806900F08F
:1004400080000028F9D0324800782E49086000BFAB
:100450002C48806900F008000028F9D12948006B79
:1004600040F4007027490863F0BD70B505460C469E
:1004700020480078F8B12548406D00F00200D0B166
:100480001C480078207000201A49087022782349FF
:10049000284600F035F94FF6FF701D490880217895
:1004A0002846FFF77DFF1A48008808B9012070BD73
:1004B0004FF0FF30FBE70020F9E71249C96B01F06C
:1004C0001001B1B10F490968C8B21049496D01F076
:1004D000020111B10021074A117006490A78097812
:1004E000491C044B19700D4988540021074A1160BA
:1004F0005165704700400020A1AA5585010001D038
:1005000088010040009009402700010000A0084039
:100510000240002066090020660800200C400020F0
:1005200010B5434A93071A609207126942F4000219
:100530001A613F4A3F4B1A603F4A9A6052063F4B4E
:100540001A6001223B4B5A600021002013E000F1A9
:100550003C02012303EB0222364B1A6100BF354AED
:10056000526902F00102002AF9D0324A9269C2F3BC
:100570000B021144401C0428E9DB891000222F4B98
:100580001A602C4A926861F31F522A4B9A6000202D
:1005900003E000222A4B1A54401C0728F9DB49F2D9
:1005A0000402244BDA607F22244B183B1A60214B53
:1005B000C3F8382125225A60772202F01F04012354
:1005C000A3405409A40004F1E024C4F8003100BFA2
:1005D00010BD08B525E0174A92690092BDF80200E7
:1005E000BDF8001007281CDA164A32F810200A4419
:1005F000144B23F81020124A125C521C104B1A5450
:100600001A46125C082A0CDB0E4A32F81020D2106F
:100610000D4B23F810200022094B1A54094B23F8E4
:100620001020044A526902F00102002AD3D108BD09
:10063000A1AA558500A00A40F8FF0F003CA10A407E
:10064000044000201A4100200C41002027480047A8
:10065000FEE7FEE7FEE7FEE7FEE7FEE7FEE7FEE772
:10066000FEE7FEE7FEE7FEE7FEE7FEE7FEE7FEE762
:10067000FEE7FEE7FEE7FEE7FEE7FEE7FEE7FEE752
:10068000FEE7FEE7FEE7FEE7FEE7FEE7FEE7FEE742
:10069000FEE7FEE7FEE7FEE7FEE7FEE7FEE7FEE732
:1006A000FEE7FEE7FEE7FEE7FEE7FEE7FEE7FEE722
:1006B000FEE7FEE7FEE7FEE7FEE7FEE7FEE7FEE712
:1006C000FEE7FEE7FEE7FEE7FEE7FEE7FEE7FEE702
:1006D000FEE7FEE7FEE7FEE7FEE7FEE7FEE7FEE7F2
:1006E00003480449044A054B7047000039020020C2
:1006F0008841002088490020884500208845002046
:10070000032A40F2308010F0030C00F0158011F83D
:10071000013BBCF1020F624498BF11F801CB00F815
:10072000013B38BF11F8013BA2F1040298BF00F869
:1007300001CB38BF00F8013B11F0030300F0288023
:10074000083AC0F0088051F8043B083A51F804CB4D
:10075000A0E80810F5E7121D5CBF51F8043B40F813
:10076000043BAFF30080D20724BF11F8013B11F81E
:1007700001CB48BF11F8012B24BF00F8013B00F862
:1007800001CB48BF00F8012B704770477047704796
:1007900010B5203AC0F00B80B1E81850203AA0E81C
:1007A0001850B1E81850A0E81850BFF4F5AF5FEA50
:1007B000027C24BFB1E81850A0E8185044BF18C903
:1007C00018C0BDE810405FEA827C24BF51F8043BAA
:1007D00040F8043B08BF7047D20728BF31F8023BFE
:1007E00048BF11F8012B28BF20F8023B48BF00F892
:1007F000012B7047754600F02BF8AE4605006946A0
:10080000534620F00700854618B020B5FFF768FF73
:10081000BDE820404FF000064FF000074FF0000801
:100820004FF0000B21F00701AC46ACE8C009ACE882
:10083000C009ACE8C009ACE8C0098D46704710B5E6
:100840000446AFF300802046BDE81040FFF73BBDF3
:10085000004870472841002001491820ABBEFEE740
:1008600026000200704700C0C101C30302C2C606D1
:1008700007C705C5C404CC0C0DCD0FCFCE0E0ACAD8
:10088000CB0BC90908C8D81819D91BDBDA1A1EDE28
:10089000DF1FDD1D1CDC14D4D515D71716D6D212D8
:1008A00013D311D1D010F03031F133F3F23236F6E8
:1008B000F737F53534F43CFCFD3DFF3F3EFEFA3A98
:1008C0003BFB39F9F83828E8E929EB2B2AEAEE2E28
:1008D0002FEF2DEDEC2CE42425E527E7E62622E298
:1008E000E323E12120E0A06061A163A3A26266A6E8
:1008F000A767A56564A46CACAD6DAF6F6EAEAA6A58
:100900006BAB69A9A86878B8B979BB7B7ABABE7EA7
:100910007FBF7DBDBC7CB47475B577B7B67672B257
:10092000B373B17170B050909151935352929656E7
:100930005797559594549C5C5D9D5F9F9E5E5A9A17
:100940009B5B99595898884849894B8B8A4A4E8EA7
:100950008F4F8D4D4C8C4484854587474686824217
:1009600043834181804000C1814001C0804101C07A
:10097000804100C1814001C0804100C1814000C16F
:10098000814001C0804101C0804100C1814000C15F
:10099000814001C0804100C1814001C0804101C04F
:1009A000804100C1814001C0804100C1814000C13F
:1009B000814001C0804100C1814001C0804101C02F
:1009C000804100C1814000C1814001C0804101C01F
:1009D000804100C1814001C0804100C1814000C10F
:1009E000814001C0804101C0804100C1814000C1FF
:1009F000814001C0804100C1814001C0804101C0EF
:100A0000804100C1814000C1814001C0804101C0DE
:100A1000804100C1814001C0804100C1814000C1CE
:100A2000814001C0804100C1814001C0804101C0BE
:100A3000804100C1814001C0804100C1814000C1AE
:100A4000814001C0804101C0804100C1814000C19E
:100A5000814001C0804100C1814001C0804101C08E
:100A6000804100C181400000880A00200040002031
:100A70000C00000074020020940A00200C400020AA
:100A80007C0900009002002000000000000000002F
:040A90000000000062
:04000005200002399C
:00000001FF
