:020000042000DA
:10000000904A0020790B00207D0B00207F0B002000
:10001000810B0020830B0020850B002000000000D6
:10002000000000000000000000000000870B00201E
:100030000000000000000000890B00208B0B002056
:1000400000000000000000000000000000000000B0
:1000500000000000000000000000000000000000A0
:100060000000000000000000000000000000000090
:100070000000000000000000000000000000000080
:100080000000000000000000000000000000000070
:100090000000000000000000000000000000000060
:1000A0000000000000000000000000000000000050
:1000B0000000000000000000000000000000000040
:1000C0008D0B00208F0B0020910B0020930B002044
:1000D000950B0020970B0020990B00209B0B002014
:1000E0009D0B00209F0B0020A10B0020A30B0020E4
:1000F000A50B0020A70B0020A90B0020AB0B0020B4
:10010000AD0B0020AF0B0020B10B0020B30B002083
:10011000B50B0020000000000000000000000000FF
:1001200000000000000000000000000000000000CF
:1001300000000000000000000000000000000000BF
:1001400000000000000000000000000000000000AF
:10015000000000000000000000000000000000009F
:10016000000000000000000000000000000000008F
:10017000000000000000000000000000000000007F
:10018000000000000000000000000000B70B00208D
:10019000B90B0020BB0B0020BD0B0020BF0B0020C3
:1001A000C10B0020C30B0020C50B0020C70B002093
:1001B000C90B0020CB0B0020CD0B0020CF0B002063
:1001C000750A0020D30B0020D50B0020D70B002090
:1001D000D90B0020DB0B0020DD0B0020DF0B002003
:1001E000E10B0020E30B0020E50B0020E70B0020D3
:1001F0007B080020EB0B0020ED0B0020EF0B002014
:10020000F10B0020F30B0020F50B0020F70B002072
:10021000F90B0020FB0B0020FD0B002093090020B0
:10022000010C0020030C0020050C0020070C00200E
:10023000090C00200B0C002000F002F800F042F83E
:100240000AA090E8000C82448344AAF10107DA4531
:1002500001D100F037F8AFF2090EBAE80F0013F041
:10026000010F18BFFB1A43F0010318475C1300008D
:100270007C130000103A24BF78C878C1FAD852071E
:1002800024BF30C830C144BF04680C607047000010
:100290000023002400250026103A28BF78C1FBD88F
:1002A000520728BF30C148BF0B607047642900F077
:1002B000F984782900F03285002070471FB51FBDF2
:1002C00010B510BD00F0EDFE1146FFF7F7FF00F08E
:1002D0001DF900F00BFF03B4FFF7F2FF03BC00F0C1
:1002E00013FF00006C486D4908606D486D49086057
:1002F0006C48F038D0F8000140F080506949F0397E
:10030000C1F800010846D0F8100140F08050C1F853
:1003100010010846D0F8200140F08050614930318A
:1003200008605F4860490860002048658865C865C6
:10033000086648665A48810708608007C0685B49BC
:1003400008434FF08041C86059485A4908605448F2
:1003500059490860C017886358495748416358494C
:10036000416258490163584901625849C1654FF0DB
:10037000FF30514988644A4855490860C01788636E
:10038000000C88620020886152495148C1624FF0D8
:10039000A041C1610F210163052101620021416378
:1003A00041624FF460204A49086102214848C16512
:1003B000C0044749886500208864474808640020D5
:1003C000086537484549086045488863C043C863A5
:1003D0000104424841634FF0085141624FF0FF3041
:1003E0003E498862002088613E4888642C483E4926
:1003F0000860C01788633D493B48016202214162A1
:100400006FF040403849886539493748C1653948F7
:1004100035498864224838490860C0178863000657
:100420008862002088614FF6FF713348016348F607
:100430008801016245F6FF702F498865FF212E482B
:10044000C16517482D4908602D48486040F22130A9
:10045000C8601348810708604FF0C050086500BFAE
:100460004FF08040006E00F480100028F8D025483E
:100470008107886700BF4FF08040806F00F0805098
:100480000028F8D00820C1064860002088601E4877
:1004900008498031086070470000002008ED00E046
:1004A000A1AA5585F01000400030004000E0030490
:1004B000270001003C01004000000840FF0FFF0042
:1004C000CC0CCC000000FFF00000CCC0000F3C00C2
:1004D00000100840F00F00F00F86010000200840D7
:1004E000FF00C0FFFF00C03F003008400020200296
:1004F000C0FC03F00080173E004008400050004060
:100500006103000401080058070001108AB0FFF7DA
:10051000E9FE00F0EFF800F079FA59A15A4800F02E
:1005200085FB594800F0ADFCC4B200222146564874
:1005300000F02EF9A2E055A1534800F077FB00BF70
:1005400045F255504FF0402108604000086000BF60
:1005500009A94D4800F069F90028EBD04A48007815
:1005600041283BD1772000F01F0201219140494AE8
:10057000430942F8231000BF0E22474905A800F0A6
:100580009FFC772000F01F02012191404209920058
:1005900002F1E022C2F8001100BFBDF82010BDF842
:1005A0001E00BDF81C20BDF81A30CDE90132CDE99E
:1005B0000301BDF818000090BDF81630BDF81420F6
:1005C00036A1314800F032FB2F4800F05AFCC4B28B
:1005D000002221462C4800F0DBF84FE02A48007842
:1005E00042280FD13548426835A1274800F01EFB4C
:1005F000254800F046FCC4B200222146224800F003
:10060000C7F83BE020480078522804D14FF48030EE
:100610002D49886032E01C48007854282ED11A48B1
:100620004078302810D1032000F00EFA27A1164898
:1006300000F0FCFA144800F024FCC4B20022214669
:10064000114800F0A5F819E00F484078312815D17D
:100650000D488078224991FBF0F42146032000F0F8
:100660000EFA20A1084800F0E1FA074800F009FC62
:10067000C4B200222146044800F08AF85BE700007B
:1006800053544152540A0D001440002072656164B5
:10069000790A0D0080E100E0144200202534642036
:1006A00025346420253464202534642025346420D6
:1006B000253464202534640A0D00000000500040F9
:1006C00025580A0D000000000040084050574D20FA
:1006D00069732064697361626C650A0D0000000033
:1006E00040420F0054696D65206973207365740A78
:1006F0000D00000000206F4908706F4881070860F6
:100700008007006940F0400008616C486C4908604F
:100710000B206C494862002088626020C86210206B
:10072000886340F2013008638007C06840F400002D
:100730008904C8606448C1F830014FF47A70634995
:1007400088600120C8606C2000F01F0201219140E8
:100750004209920002F1E022C2F8001100BF704786
:1007600010B50A460FE010F8013B594C647883EA53
:100770000401574B1B78574C645C6340544C6370C6
:10078000554B5B5C2370131EA2F10102EBD110BD2F
:10079000F0B507460E4615464A48006B20F4007037
:1007A000484908631DB131463846FFF7D9FF002498
:1007B00014E000BF4348806900F080000028F9D0B1
:1007C000385D4049086000BF45F255504FF0402168
:1007D00008604000086000BF601CC4B2B442E8DB9F
:1007E000ADB100BF3748806900F080000028F9D023
:1007F000374840783349086000BF3248806900F0CC
:1008000080000028F9D0324800782E49086000BFE7
:100810002C48806900F008000028F9D12948006BB5
:1008200040F4007027490863F0BD70B505460C46DA
:1008300020480078F8B12548406D00F00200D0B1A2
:100840001C480078207000201A490870227823493B
:10085000284600F035FB4FF6FF701D4908802178CF
:100860002846FFF77DFF1A48008808B9012070BDAF
:100870004FF0FF30FBE70020F9E71249C96B01F0A8
:100880001001B1B10F490968C8B21049496D01F0B2
:10089000020111B10021074A117006490A7809784E
:1008A000491C044B19700D4988540021074A1160F6
:1008B0005165704700400020A1AA5585010001D074
:1008C00088010040009009402700010000A0084076
:1008D00002400020A0140020A0130020144100209A
:1008E00010B5434A93071A609207126942F4000256
:1008F0001A613F4A3F4B1A603F4A9A6052063F4B8B
:100900001A6001223B4B5A600021002013E000F1E5
:100910003C02012303EB0222364B1A6100BF354A29
:10092000526902F00102002AF9D0324A9269C2F3F8
:100930000B021144401C0428E9DB891000222F4BD4
:100940001A602C4A926861F31F522A4B9A60002069
:1009500003E000222A4B1A54401C0728F9DB49F215
:100960000402244BDA607F22244B183B1A60214B8F
:10097000C3F8382125225A60772202F01F04012390
:10098000A3405409A40004F1E024C4F8003100BFDE
:1009900010BD08B525E0174A92690092BDF8020023
:1009A000BDF8001007281CDA164A32F810200A4455
:1009B000144B23F81020124A125C521C104B1A548C
:1009C0001A46125C082A0CDB0E4A32F81020D210AC
:1009D0000D4B23F810200022094B1A54094B23F821
:1009E0001020044A526902F00102002AD3D108BD46
:1009F000A1AA558500A00A40F8FF0F003CA10A40BB
:100A000004400020224200201442002010B5524829
:100A1000810708608007C06840F08060C8604F4868
:100A20004F49086000204F49C860086048600220B4
:100A300088654D48006888604FF46060486288624D
:100A4000782000F074F810BD10B50446032C0FD1C7
:100A5000782000F077F800204249C860886008607C
:100A60008815486301208863782000F060F800BF93
:100A700000BF10BD10B50320FFF7E6FF10BD2DE944
:100A8000F04781460C46B9F1030F2BD1782000F0D6
:100A900059F834488460204600F071FB0746334A19
:100AA000334B00F07FFB054600F03CFB2D494861CD
:100AB000204600F064FB05462C4A2D4B00F072FBEB
:100AC000074600F02FFB274988614FF41060486308
:100AD00009208863002008600120C860782000F0A9
:100AE00026F800BF00BFBDE8F087012804D0022827
:100AF0000BD003281AD111E0642903DB6322194BC0
:100B00001A6101E0174A116100BF642903DB632207
:100B1000144B5A6101E0134A516100BF642903DBA1
:100B20006322104B9A6101E00E4A9161704700F018
:100B30001F02012191404209920002F1E022C2F815
:100B40000011704700F01F0201219140094A43093A
:100B500042F8231070470000A1AA55852700010024
:100B60003C01004000D008400C4000209A9999991F
:100B70009999C93F80E100E027480047FEE7FEE77A
:100B8000FEE7FEE7FEE7FEE7FEE7FEE7FEE7FEE73D
:100B9000FEE7FEE7FEE7FEE7FEE7FEE7FEE7FEE72D
:100BA000FEE7FEE7FEE7FEE7FEE7FEE7FEE7FEE71D
:100BB000FEE7FEE7FEE7FEE7FEE7FEE7FEE7FEE70D
:100BC000FEE7FEE7FEE7FEE7FEE7FEE7FEE7FEE7FD
:100BD000FEE7FEE7FEE7FEE7FEE7FEE7FEE7FEE7ED
:100BE000FEE7FEE7FEE7FEE7FEE7FEE7FEE7FEE7DD
:100BF000FEE7FEE7FEE7FEE7FEE7FEE7FEE7FEE7CD
:100C0000FEE7FEE7FEE7FEE7FEE7FEE703480449EE
:100C1000044A054B70470000390200209042002032
:100C2000904A002090460020904600200FB41CB54A
:100C3000074B06AA7B4469460090059800F0E7F947
:100C40000020694600F0F6F91CBC5DF814FB0000BA
:100C5000FD03000070B5044685690068C10601D532
:100C6000302600E02026C00707D070BDD4E901215E
:100C700030469047206A401C20626D1EF6D570BD3C
:100C800070B5044685690078C00707D170BDD4E906
:100C9000012120209047206A401C20626D1EF6D55D
:100CA00070BD00002DE9F04106460024106875294A
:100CB000314616A510D0AFF30080002802DA40427A
:100CC00013A507E031688A0701D512A502E049079C
:100CD00004D511A5012401E0AFF3008000210A2210
:100CE00006F1240709E0B0FBF2FCB0FBF2F302FBD3
:100CF0001C00303078541846491C0028F3D1234694
:100D00002A463046BDE8F04100F022B9000000005C
:100D10002D0000002B0000002000000070B50446EC
:100D20000D4621461068AFF300802188090502D5E1
:100D30000F4A7A4402E00E4A7A440E32002104F14E
:100D4000240305E000F00F060009965D5E54491C7F
:100D50000028F7D120780023000704D5702D02D099
:100D600009B1022311322046BDE8704000F0F0B80E
:100D70006A0800002DE9F0474FF0000A8946044652
:100D8000C0F820A02046E1688847002876D02528B2
:100D900006D0D4E901219047206A401C2062F1E787
:100DA000E168204600258847C4F81CA006460027B5
:100DB000C4F818A02A2E09D0304600F0ACF938B398
:100DC00004EB8708303EC8F8186019E059F8041B96
:100DD000204604EB87029161E1688847012F0646AF
:100DE00018D1E069002820DA25F020051DE0D8F8A8
:100DF000180000EB800006EB40003038C8F81800FF
:100E00002046E1688847064600F085F90028EED1C3
:100E1000012F0AD02E2E08D12046E16888477F1C7A
:100E20000646022F45F02005C4DBA069002803DA3E
:100E3000404245F00105A061E80701D025F010050A
:100E4000B6B1A6F14100192802D8203645F4006554
:100E50004A463146204625604D46FFF727FA58B1ED
:100E6000012806D0ED1D25F0070000F1080989E7EB
:100E700004E005F1040985E730468AE7206ABDE809
:100E8000F08710B5431C02E010F8011B71B1810717
:100E9000FAD14FF0013202C88C1A8C4314EAC21105
:100EA000F9D0C01A0A0603D0C01E10BDC01A10BD6A
:100EB0000A0401D0801E10BD0902FCD0401E10BDE6
:100EC000032A40F2308010F0030C00F0158011F876
:100ED000013BBCF1020F624498BF11F801CB00F84E
:100EE000013B38BF11F8013BA2F1040298BF00F8A2
:100EF00001CB38BF00F8013B11F0030300F09F80E5
:100F0000083AC0F0088051F8043B083A51F804CB85
:100F1000A0E80810F5E7121D5CBF51F8043B40F84B
:100F2000043BAFF30080D20724BF11F8013B11F856
:100F300001CB48BF11F8012B24BF00F8013B00F89A
:100F400001CB48BF00F8012B7047704770477047CE
:100F50002DE9F0470D4699469246044600F12408D3
:100F60000168880604D5E06921F01001216000E0E5
:100F70000120A84201DD471B00E00027A1697A1982
:100F800002EB0900081AA0612078C00602D42046AE
:100F9000FFF760FE002608E0D4E901211AF80600F8
:100FA0009047206A401C761C20624E45F4DB207876
:100FB000C0060AD52046FFF74DFE06E0D4E9012120
:100FC00030209047206A401C2062381EA7F101079C
:100FD000F4DC07E0D4E9012118F805009047206A05
:100FE000401C2062281EA5F10105F3DC2046FFF716
:100FF00047FE2078000602D50220BDE8F0870120D8
:10100000FBE7000001694A1C02610878704700B5DF
:101010008FB0CDE901310021059105497944CDE931
:10102000031011466846FFF7A5FE0FB000BD000093
:10103000E5FFFFFF0A6802F8010B0A60704710B570
:10104000203AC0F00B80B1E81850203AA0E81850C0
:10105000B1E81850A0E81850BFF4F5AF5FEA027C81
:1010600024BFB1E81850A0E8185044BF18C918C0F0
:10107000BDE810405FEA827C24BF51F8043B40F891
:10108000043B08BF7047D20728BF31F8023B48BF76
:1010900011F8012B28BF20F8023B48BF00F8012BB4
:1010A0007047754600F02CF8AE4605006946534679
:1010B00020F00700854618B020B5FFF7A7FDBDE872
:1010C00020404FF000064FF000074FF000084FF0AF
:1010D000000B21F00701AC46ACE8C009ACE8C00940
:1010E000ACE8C009ACE8C0098D46704710B50446AD
:1010F000AFF300802046BDE81040FFF7ECB80000D9
:10110000004870473042002001491820ABBEFEE77E
:1011100026000200704730380A2801D201207047AB
:10112000002070474FEA1153A3F58063D3F11E03EB
:10113000A8BFD3F1200C08DB4FF0004242EAC122E5
:1011400052EA505232FA03F0704709420BD4102B86
:10115000C4BF0020704703F5787CBCF1FF3F05D089
:101160004FF0FF3070474FF00000704770B500F04F
:10117000C3F800BF4992248000207047F0E7B0FA1E
:1011800080F310FA03F10AD0C3F11D0303F5806365
:101190004FEA41504FEA035202EBD12170474FF022
:1011A00000007047DFF848C170B51CEA111E1EBF71
:1011B0001CEA13159EEA0C0F95EA0C0F00F06F80E5
:1011C00081EA030423EA4C134EEAD47E21EA4C114F
:1011D00041F4801143F48013AE44A1FB024CA0FB08
:1011E0000365AEF17F7E361955EB0C05A1FB034C70
:1011F0004CF10003A0FB021C16EB0C06654153F1F9
:101200000003094218BF46F0010613F4007F0BD11A
:101210004FEA03314FEA0530340341EA155140EA01
:1012200016506FF003020AE04FEAC3214FEAC520CF
:10123000F40241EA555140EA56506FF0020202EBC7
:101240002E4201EB025585EACE710AD05FEA440CCA
:1012500018BF24F0004450F1000041F1000120EAE1
:10126000D47040F2FE7C624500D270BDA84214BF2B
:101270004FF080444FF04044002E08BF0024BEF1E0
:10128000806FA8BFA1F1C041BDE8704080F28280AC
:101290004FF0000001F1C04101F0004170479EEAAB
:1012A0000C0F0CEA131518BF95EA0C0F06D04FF07F
:1012B000000081EA030E0EF0004170BD00F01CF842
:1012C0008900013E00F007B800F009B84FEA430C6E
:1012D0005FEA5C5C08D081EA030100F05BB84FEA8A
:1012E000410C5FEA5C5CF6D14FF0000001497047A9
:1012F0000000FF070000F87F0EF1020E2EF0030E33
:101300005EF8046B364205D4012A43EB030515F55C
:10131000001F12D8012841EB010C1CF5001F0CD84E
:101320000ED14FEAD17C15F5001F0CEB4C0C0CF1E3
:10133000020C08BF4CEBD37C04E04FF0080C01E03A
:101340004FEAD37C0CEB4C0526FA05F606F00706AF
:10135000B6F1040C06D20EEB860CBDE870404CF0E2
:10136000010C6047DFE80CF0090B02024FF000416E
:101370004FF00000A1F5002170BD1946104601286C
:1013800051EB010418BFD4F5001484BF002001F014
:10139000004170BD0808A0F500114FEA3101704707
:1013A00000C0C101C30302C2C60607C705C5C40405
:1013B000CC0C0DCD0FCFCE0E0ACACB0BC90908C875
:1013C000D81819D91BDBDA1A1EDEDF1FDD1D1CDC65
:1013D00014D4D515D71716D6D21213D311D1D010D5
:1013E000F03031F133F3F23236F6F737F53534F4C5
:1013F0003CFCFD3DFF3F3EFEFA3A3BFB39F9F83835
:1014000028E8E929EB2B2AEAEE2E2FEF2DEDEC2C24
:10141000E42425E527E7E62622E2E323E12120E094
:10142000A06061A163A3A26266A6A767A56564A484
:101430006CACAD6DAF6F6EAEAA6A6BAB69A9A868F4
:1014400078B8B979BB7B7ABABE7E7FBF7DBDBC7CE4
:10145000B47475B577B7B67672B2B373B17170B054
:101460005090915193535292965657975595945444
:101470009C5C5D9D5F9F9E5E5A9A9B5B99595898B4
:10148000884849894B8B8A4A4E8E8F4F8D4D4C8CA4
:101490004484854587474686824243834181804014
:1014A00000C1814001C0804101C0804100C1814034
:1014B00001C0804100C1814000C1814001C0804124
:1014C00001C0804100C1814000C1814001C0804114
:1014D00000C1814001C0804101C0804100C1814004
:1014E00001C0804100C1814000C1814001C08041F4
:1014F00000C1814001C0804101C0804100C18140E4
:1015000000C1814001C0804101C0804100C18140D3
:1015100001C0804100C1814000C1814001C08041C3
:1015200001C0804100C1814000C1814001C08041B3
:1015300000C1814001C0804101C0804100C18140A3
:1015400000C1814001C0804101C0804100C1814093
:1015500001C0804100C1814000C1814001C0804183
:1015600000C1814001C0804101C0804100C1814073
:1015700001C0804100C1814000C1814001C0804163
:1015800001C0804100C1814000C1814001C0804153
:1015900000C1814001C0804101C0804100C1814043
:1015A0003031323334353637383941424344454699
:1015B0004030580030313233343536373839616293
:1015C0006364656640307800E81500200040002024
:1015D0001400000074020020FC15002014400020BC
:1015E0007C0A0000900200200000000000000000C3
:0C15F0000000000040420F00000000005E
:04000005200002399C
:00000001FF
