:020000042000DA
:10000000884A0020DD090020E1090020E3090020E2
:10001000E5090020E7090020E909002000000000B0
:10002000000000000000000000000000EB090020BC
:100030000000000000000000ED090020EF09002092
:1000400000000000000000000000000000000000B0
:1000500000000000000000000000000000000000A0
:100060000000000000000000000000000000000090
:100070000000000000000000000000000000000080
:100080000000000000000000000000000000000070
:100090000000000000000000000000000000000060
:1000A0000000000000000000000000000000000050
:1000B0000000000000000000000000000000000040
:1000C000F1090020F3090020F5090020F7090020BC
:1000D000F9090020FB090020FD090020FF0900208C
:1000E000010A0020030A0020050A0020070A002058
:1000F000090A00200B0A00200D0A00200F0A002028
:10010000110A0020130A0020150A0020170A0020F7
:10011000190A00200000000000000000000000009C
:1001200000000000000000000000000000000000CF
:1001300000000000000000000000000000000000BF
:1001400000000000000000000000000000000000AF
:10015000000000000000000000000000000000009F
:10016000000000000000000000000000000000008F
:10017000000000000000000000000000000000007F
:100180000000000000000000000000001B0A00202A
:100190001D0A00201F0A0020210A0020230A002037
:1001A000250A0020270A0020290A00202B0A002007
:1001B0002D0A00202F0A0020310A0020330A0020D7
:1001C000350A0020370A0020390A00203B0A0020A7
:1001D0003D0A00203F0A0020410A0020430A002077
:1001E000450A0020470A0020490A00204B0A002047
:1001F0004B0800204F0A0020510A0020530A00201B
:10020000550A0020570A0020590A00205B0A0020E6
:100210005D0A00205F0A0020610A002063090020B7
:10022000650A0020670A0020690A00206B0A002086
:100230006D0A00206F0A002000F002F800F042F87A
:100240000AA090E8000C82448344AAF10107DA4531
:1002500001D100F037F8AFF2090EBAE80F0013F041
:10026000010F18BFFB1A43F001031847440F0000A9
:10027000640F0000103A24BF78C878C1FAD852073A
:1002800024BF30C830C144BF04680C607047000010
:100290000023002400250026103A28BF78C1FBD88F
:1002A000520728BF30C148BF0B607047642900F077
:1002B0002B84782900F06484002070471FB51FBD8F
:1002C00010B510BD00F01FFE1146FFF7F7FF00F05C
:1002D0001DF900F03DFE03B4FFF7F2FF03BC00F090
:1002E00045FE00006C486D4908606D486D49086026
:1002F0006C48F038D0F8000140F080506949F0397E
:10030000C1F800010846D0F8100140F08050C1F853
:1003100010010846D0F8200140F08050614930318A
:1003200008605F4860490860002048658865C865C6
:10033000086648665A48810708608007C0685B49BC
:1003400008434FF08041C86059485A4908605448F2
:1003500059490860C017886358495748416358494C
:10036000416258490163584901625849C1654FF0DB
:10037000FF30514988644A4855490860C01788636E
:10038000000C88620020886152495148C1624FF0D8
:10039000A041C1610F210163052101620021416378
:1003A00041624FF460204A49086102214848C16512
:1003B000C0044749886500208864474808640020D5
:1003C000086537484549086045488863C043C863A5
:1003D0000104424841634FF0085141624FF0FF3041
:1003E0003E498862002088613E4888642C483E4926
:1003F0000860C01788633D493B48016202214162A1
:100400006FF040403849886539493748C1653948F7
:1004100035498864224838490860C0178863000657
:100420008862002088614FF6FF713348016348F607
:100430008801016245F6FF702F498865FF212E482B
:10044000C16517482D4908602D48486040F22130A9
:10045000C8601348810708604FF0C050086500BFAE
:100460004FF08040006E00F480100028F8D025483E
:100470008107886700BF4FF08040806F00F0805098
:100480000028F8D00820C1064860002088601E4877
:1004900008498031086070470000002008ED00E046
:1004A000A1AA5585F01000400030004000E0030490
:1004B000270001003C01004000000840FF0FFF0042
:1004C000CC0CCC000000FFF00000CCC0000F3C00C2
:1004D00000100840F00F00F00F86010000200840D7
:1004E000FF00C0FFFF00C03F003008400020200296
:1004F000C0FC03F00080173E004008400050004060
:100500006103000401080058070001108AB0FFF7DA
:10051000E9FE00F0D7F800205649086048605648C8
:1005200088604CF25030086154484861001188617D
:100530004FF4606008624FF4106008634FF460602D
:10054000486240F6091048634FF4606088620920F1
:1005500088630120C8604AA14B4800F099FA4A48D4
:1005600000F0C1FBC4B200222146474800F0F8F871
:100570007EE000BF45F255504FF04021086040003A
:10058000086000BF09A9404800F037F900286FD083
:100590003D48007841283BD1772000F01F0201211F
:1005A00091403A4A430942F8231000BF0E223849CD
:1005B00005A800F0B7FB772000F01F020121914051
:1005C0004209920002F1E022C2F8001100BFBDF81A
:1005D0002020BDF81E00BDF81C10BDF81A30CDE972
:1005E0000131CDE90302BDF818000090BDF81630C6
:1005F000BDF8142027A1244800F04AFA224800F050
:1006000072FBC4B2002221461F4800F0A9F82FE077
:100610001D48007842280FD12648426826A11A4872
:1006200000F036FA184800F05EFBC4B20022214602
:10063000154800F095F81BE013480078522804D1C3
:100640004FF480301E49886012E00F48007854282B
:100650000ED10D484078302803D100200549C860EC
:1006600006E009484078312802D101200149C860DC
:100670007FE7000000D00840404B4C00803801006C
:1006800053544152540A0D000C40002080E100E018
:100690000C42002025346420253464202534642055
:1006A0002534642025346420253464202534640AEC
:1006B0000D0000000050004025580A0D0000000009
:1006C0000040084000206F4908706F4881070860AB
:1006D0008007006940F0400008616C486C49086080
:1006E0000B206C494862002088626020C86210209C
:1006F000886340F2013008638007C06840F400005E
:100700008904C8606448C1F830014FF47A706349C5
:1007100088600120C8606C2000F01F020121914018
:100720004209920002F1E022C2F8001100BF7047B6
:1007300010B50A460FE010F8013B594C647883EA83
:100740000401574B1B78574C645C6340544C6370F6
:10075000554B5B5C2370131EA2F10102EBD110BD5F
:10076000F0B507460E4615464A48006B20F4007067
:10077000484908631DB131463846FFF7D9FF0024C8
:1007800014E000BF4348806900F080000028F9D0E1
:10079000385D4049086000BF45F255504FF0402198
:1007A00008604000086000BF601CC4B2B442E8DBCF
:1007B000ADB100BF3748806900F080000028F9D053
:1007C000374840783349086000BF3248806900F0FC
:1007D00080000028F9D0324800782E49086000BF18
:1007E0002C48806900F008000028F9D12948006BE6
:1007F00040F4007027490863F0BD70B505460C460B
:1008000020480078F8B12548406D00F00200D0B1D2
:100810001C480078207000201A490870227823496B
:10082000284600F07FFA4FF6FF701D4908802178B6
:100830002846FFF77DFF1A48008808B9012070BDDF
:100840004FF0FF30FBE70020F9E71249C96B01F0D8
:100850001001B1B10F490968C8B21049496D01F0E2
:10086000020111B10021074A117006490A7809787E
:10087000491C044B19700D4988540021074A116026
:100880005165704700400020A1AA5585010001D0A4
:1008900088010040009009402700010000A00840A6
:1008A0000240002088100020880F00200C4100200A
:1008B00010B5434A93071A609207126942F4000286
:1008C0001A613F4A3F4B1A603F4A9A6052063F4BBB
:1008D0001A6001223B4B5A600021002013E000F116
:1008E0003C02012303EB0222364B1A6100BF354A5A
:1008F000526902F00102002AF9D0324A9269C2F329
:100900000B021144401C0428E9DB891000222F4B04
:100910001A602C4A926861F31F522A4B9A60002099
:1009200003E000222A4B1A54401C0728F9DB49F245
:100930000402244BDA607F22244B183B1A60214BBF
:10094000C3F8382125225A60772202F01F040123C0
:10095000A3405409A40004F1E024C4F8003100BF0E
:1009600010BD08B525E0174A92690092BDF8020053
:10097000BDF8001007281CDA164A32F810200A4485
:10098000144B23F81020124A125C521C104B1A54BC
:100990001A46125C082A0CDB0E4A32F81020D210DC
:1009A0000D4B23F810200022094B1A54094B23F851
:1009B0001020044A526902F00102002AD3D108BD76
:1009C000A1AA558500A00A40F8FF0F003CA10A40EB
:1009D000044000201A4200200C4200202748004713
:1009E000FEE7FEE7FEE7FEE7FEE7FEE7FEE7FEE7DF
:1009F000FEE7FEE7FEE7FEE7FEE7FEE7FEE7FEE7CF
:100A0000FEE7FEE7FEE7FEE7FEE7FEE7FEE7FEE7BE
:100A1000FEE7FEE7FEE7FEE7FEE7FEE7FEE7FEE7AE
:100A2000FEE7FEE7FEE7FEE7FEE7FEE7FEE7FEE79E
:100A3000FEE7FEE7FEE7FEE7FEE7FEE7FEE7FEE78E
:100A4000FEE7FEE7FEE7FEE7FEE7FEE7FEE7FEE77E
:100A5000FEE7FEE7FEE7FEE7FEE7FEE7FEE7FEE76E
:100A6000FEE7FEE7FEE7FEE7FEE7FEE7FEE7FEE75E
:100A700003480449044A054B70470000390200202E
:100A800088420020884A00208846002088460020AE
:100A90000FB41CB5074B06AA7B4469460090059825
:100AA00000F0E7F90020694600F0F6F91CBC5DF89B
:100AB00014FB0000FD03000070B504468569006862
:100AC000C10601D5302600E02026C00707D070BD42
:100AD000D4E9012130469047206A401C20626D1EF7
:100AE000F6D570BD70B5044685690078C00707D19A
:100AF00070BDD4E9012120209047206A401C20626B
:100B00006D1EF6D570BD00002DE9F04106460024AB
:100B100010687529314616A510D0AFF30080002863
:100B200002DA404213A507E031688A0701D512A511
:100B300002E0490704D511A5012401E0AFF30080CC
:100B400000210A2206F1240709E0B0FBF2FCB0FB09
:100B5000F2F302FB1C00303078541846491C002880
:100B6000F3D123462A463046BDE8F04100F022B9D1
:100B7000000000002D0000002B00000020000000FD
:100B800070B504460D4621461068AFF300802188F9
:100B9000090502D50F4A7A4402E00E4A7A440E3221
:100BA000002104F1240305E000F00F060009965D22
:100BB0005E54491C0028F7D120780023000704D593
:100BC000702D02D009B1022311322046BDE87040D9
:100BD00000F0F0B8EE0500002DE9F0474FF0000AF4
:100BE00089460446C0F820A02046E16888470028CE
:100BF00076D0252806D0D4E901219047206A401CF0
:100C00002062F1E7E168204600258847C4F81CA06F
:100C100006460027C4F818A02A2E09D0304600F056
:100C2000ACF938B304EB8708303EC8F8186019E017
:100C300059F8041B204604EB87029161E16888475C
:100C4000012F064618D1E069002820DA25F020059A
:100C50001DE0D8F8180000EB800006EB40003038AB
:100C6000C8F818002046E1688847064600F085F974
:100C70000028EED1012F0AD02E2E08D12046E1689F
:100C800088477F1C0646022F45F02005C4DBA0697B
:100C9000002803DA404245F00105A061E80701D0D1
:100CA00025F01005B6B1A6F14100192802D820366A
:100CB00045F400654A463146204625604D46FFF71B
:100CC000F5FA58B1012806D0ED1D25F0070000F116
:100CD000080989E704E005F1040985E730468AE759
:100CE000206ABDE8F08710B5431C02E010F8011B34
:100CF00071B18107FAD14FF0013202C88C1A8C43CE
:100D000014EAC211F9D0C01A0A0603D0C01E10BDE1
:100D1000C01A10BD0A0401D0801E10BD0902FCD00B
:100D2000401E10BD032A40F2308010F0030C00F08A
:100D3000158011F8013BBCF1020F624498BF11F815
:100D400001CB00F8013B38BF11F8013BA2F10402CE
:100D500098BF00F801CB38BF00F8013B11F0030346
:100D600000F09F80083AC0F0088051F8043B083A30
:100D700051F804CBA0E80810F5E7121D5CBF51F84C
:100D8000043B40F8043BAFF30080D20724BF11F8C6
:100D9000013B11F801CB48BF11F8012B24BF00F82B
:100DA000013B00F801CB48BF00F8012B70477047AA
:100DB000704770472DE9F0470D4699469246044624
:100DC00000F124080168880604D5E06921F01001CB
:100DD000216000E00120A84201DD471B00E0002760
:100DE000A1697A1902EB0900081AA0612078C006EF
:100DF00002D42046FFF760FE002608E0D4E9012176
:100E00001AF806009047206A401C761C20624E4566
:100E1000F4DB2078C0060AD52046FFF74DFE06E039
:100E2000D4E9012130209047206A401C2062381EFE
:100E3000A7F10107F4DC07E0D4E9012118F8050067
:100E40009047206A401C2062281EA5F10105F3DCB2
:100E50002046FFF747FE2078000602D50220BDE8B5
:100E6000F0870120FBE7000001694A1C0261087855
:100E7000704700B58FB0CDE90131002105910549DA
:100E80007944CDE9031011466846FFF7A5FE0FB07F
:100E900000BD0000E5FFFFFF0A6802F8010B0A60D1
:100EA000704710B5203AC0F00B80B1E81850203AD6
:100EB000A0E81850B1E81850A0E81850BFF4F5AFFA
:100EC0005FEA027C24BFB1E81850A0E8185044BF84
:100ED00018C918C0BDE810405FEA827C24BF51F8F1
:100EE000043B40F8043B08BF7047D20728BF31F8E5
:100EF000023B48BF11F8012B28BF20F8023B48BF36
:100F000000F8012B7047754600F02CF8AE4605003E
:100F10006946534620F00700854618B020B5FFF714
:100F2000A7FDBDE820404FF000064FF000074FF04E
:100F300000084FF0000B21F00701AC46ACE8C009F7
:100F4000ACE8C009ACE8C009ACE8C0098D46704700
:100F500010B50446AFF300802046BDE81040FFF70F
:100F6000BAB9000000487047284200200149182003
:100F7000ABBEFEE726000200704730380A2801D2D7
:100F8000012070470020704700C0C101C30302C2A6
:100F9000C60607C705C5C404CC0C0DCD0FCFCE0EB9
:100FA0000ACACB0BC90908C8D81819D91BDBDA1A29
:100FB0001EDEDF1FDD1D1CDC14D4D515D71716D699
:100FC000D21213D311D1D010F03031F133F3F23209
:100FD00036F6F737F53534F43CFCFD3DFF3F3EFE79
:100FE000FA3A3BFB39F9F83828E8E929EB2B2AEAE9
:100FF000EE2E2FEF2DEDEC2CE42425E527E7E62659
:1010000022E2E323E12120E0A06061A163A3A262C8
:1010100066A6A767A56564A46CACAD6DAF6F6EAE38
:10102000AA6A6BAB69A9A86878B8B979BB7B7ABAA8
:10103000BE7E7FBF7DBDBC7CB47475B577B7B67618
:1010400072B2B373B17170B0509091519353529288
:1010500096565797559594549C5C5D9D5F9F9E5EF8
:101060005A9A9B5B99595898884849894B8B8A4A68
:101070004E8E8F4F8D4D4C8C4484854587474686D8
:10108000824243834181804000C1814001C0804150
:1010900001C0804100C1814001C0804100C1814048
:1010A00000C1814001C0804101C0804100C1814038
:1010B00000C1814001C0804100C1814001C0804128
:1010C00001C0804100C1814001C0804100C1814018
:1010D00000C1814001C0804100C1814001C0804108
:1010E00001C0804100C1814000C1814001C08041F8
:1010F00001C0804100C1814001C0804100C18140E8
:1011000000C1814001C0804101C0804100C18140D7
:1011100000C1814001C0804100C1814001C08041C7
:1011200001C0804100C1814000C1814001C08041B7
:1011300001C0804100C1814001C0804100C18140A7
:1011400000C1814001C0804100C1814001C0804197
:1011500001C0804100C1814001C0804100C1814087
:1011600000C1814001C0804101C0804100C1814077
:1011700000C1814001C0804100C1814001C0804167
:1011800001C0804100C181403031323334353637BF
:1011900038394142434445464030580030313233BB
:1011A00034353637383961626364656640307800BB
:1011B000D0110020004000200C000000740200202C
:1011C000DC1100200C4000207C0A0000900200206E
:0C11D00000000000000000000000000013
:04000005200002399C
:00000001FF
