:020000042000DA
:10000000907200208D0B0020910B0020930B00209C
:10001000950B0020970B0020990B0020000000009A
:100020000000000000000000000000009B0B00200A
:1000300000000000000000009D0B00209F0B00202E
:1000400000000000000000000000000000000000B0
:1000500000000000000000000000000000000000A0
:100060000000000000000000000000000000000090
:100070000000000000000000000000000000000080
:100080000000000000000000000000000000000070
:100090000000000000000000000000000000000060
:1000A0000000000000000000000000000000000050
:1000B0000000000000000000000000000000000040
:1000C000A10B0020A30B0020A50B0020A70B0020F4
:1000D000A90B0020AB0B0020AD0B0020AF0B0020C4
:1000E000B10B0020B30B0020B50B0020B70B002094
:1000F000B90B0020BB0B0020BD0B0020BF0B002064
:10010000C10B0020C30B0020C50B0020C70B002033
:10011000C90B0020000000000000000000000000EB
:1001200000000000000000000000000000000000CF
:1001300000000000000000000000000000000000BF
:1001400000000000000000000000000000000000AF
:10015000000000000000000000000000000000009F
:10016000000000000000000000000000000000008F
:10017000000000000000000000000000000000007F
:10018000000000000000000000000000CB0B002079
:10019000CD0B0020CF0B0020D10B0020D30B002073
:1001A000D50B0020D70B0020D90B0020DB0B002043
:1001B000DD0B0020DF0B002055090020E30B0020A1
:1001C0005F0A0020E70B0020E90B0020EB0B00206A
:1001D000ED0B0020EF0B0020F10B0020F30B0020B3
:1001E000F50B0020F70B0020F90B0020FB0B002083
:1001F00033080020FF0B0020010C0020030C00201E
:10020000050C0020070C0020090C00200B0C00201E
:100210000D0C00200F0C0020110C0020130C0020EE
:10022000150C0020170C0020190C00201B0C0020BE
:100230001D0C00201F0C002000F002F800F03FF819
:100240000AA090E8000C82448344AAF10107DA4531
:1002500001D100F034F8AFF2090EBAE80F0013F044
:10026000010F18BFFB1A43F001031847F4110000F7
:1002700014120000103A24BF78C878C1FAD8520787
:1002800024BF30C830C144BF04680C607047000010
:100290000023002400250026103A28BF78C1FBD88F
:1002A000520728BF30C148BF0B607047782900F063
:1002B0000F85002070471FB51FBD10B510BD00F0A1
:1002C00042FE1146FFF7F7FF00F01CF900F060FE58
:1002D00003B4FFF7F2FF03BC00F068FE6C486D4901
:1002E00008606D486D4908606C48F038D0F800012E
:1002F00040F080506949F039C1F800010846D0F853
:10030000100140F08050C1F810010846D0F82001DB
:1003100040F080506149303108605F4860490860B2
:10032000002048658865C865086648665A488107A0
:1003300008608007C0685B4908434FF08041C8608F
:1003400059485A490860544859490860C017886399
:1003500058495748416358494162584901635849CF
:1003600001625849C1654FF0FF30514988644A48DD
:1003700055490860C0178863000C886200208861B6
:1003800052495148C1624FF0A041C1610F21016340
:10039000052101620021416341624FF460204A4916
:1003A000086102214848C165C004474988650020AA
:1003B0008864474808640020086537484549086054
:1003C0004548C863C04388630106424841634FF013
:1003D000085141624FF0FF303E4988620020886139
:1003E0003E4888642C483E490860C01788633D49F0
:1003F0003B480162022141626FF040403849886504
:1004000039493748C16539483549886422483849EF
:100410000860C017886300068862002088614FF674
:10042000FF713348016348F68801016245F6FF70A9
:100430002F498865FF212E48C16517482D4908605E
:100440002D48486040F22130C86013488107086099
:100450004FF0C050086500BF4FF08040006E00F4C0
:1004600080100028F8D025488107886700BF4FF02A
:100470008040806F00F080500028F8D00820C1062E
:100480004860002088601E48084980310860704735
:100490000000002008ED00E0A1AA5585F010004002
:1004A0000030004000E00304270001003C01004050
:1004B00000000840FF0FFF00CC0CCC000000FFF054
:1004C0000000CCC0000F3C0000100840F00F00F00E
:1004D0000F8601000020084000FF3F00FF00C03FE2
:1004E0000030084000202002C0FC03F00080173ECE
:1004F000004008400050004061030004010800581B
:1005000007000110ADF6080DFFF7E8FE00F074FAE1
:1005100000F0CCF800F0C0F94FA1514800F090FB7A
:100520004F4800F001FCC4B2002221464C4800F0C4
:100530000BF990E000BF45F255504FF040210860A4
:100540004000086000BF0DF60401454800F049F97D
:100550000028EED04248007841282CD100204149A3
:1005600008603F4840784049086040480A461268A1
:1005700000EBC2214FF4006201A800F0F4FB12E08E
:100580003848006801AA02EBC0118022344800F00C
:10059000EAFB00228021324800F0D6F8314800689A
:1005A000401C304908602F4800681028E8DB002014
:1005B0002F4908804FE02A48007842280FD12D4863
:1005C00042682DA1264800F03BFB254800F0ACFB1B
:1005D000C4B200222146224800F0B6F83BE0204891
:1005E0000078522804D14FF480302549886032E0E9
:1005F0001B48007854282ED119484078302810D153
:10060000032000F017FA1FA1154800F019FB144849
:1006100000F08AFBC4B200222146114800F094F891
:1006200019E00F484078312815D10D4880781A49D3
:1006300091FBF0F42146032000F028FA17A10848A6
:1006400000F0FEFA064800F06FFBC4B2002221461B
:10065000034800F079F86DE753544152540A0D00F5
:100660002030002000300020043000202C320020F8
:10067000103000200050004025580A0D00000000F6
:100680000040084050574D206973206469736162CF
:100690006C650A0D0000000040420F0054696D6552
:1006A000206973207365740A0D00000000206F49F3
:1006B00008706F48810708608007006940F04000BB
:1006C00008616C486C4908600B206C494862002046
:1006D00088626020C8621020886340F2013008639D
:1006E0008007C06840F400008904C8606448C1F80D
:1006F00030014FF47A70634988600120C8606C2033
:1007000000F01F02012191404209920002F1E02213
:10071000C2F8001100BF704710B50A460FE010F88C
:10072000013B594C647883EA0401574B1B78574CC2
:10073000645C6340544C6370554B5B5C2370131EC8
:10074000A2F10102EBD110BDF0B507460E461546E9
:100750004A48006B20F40070484908631DB13146D7
:100760003846FFF7D9FF002414E000BF43488069F2
:1007700000F080000028F9D0385D4049086000BFD3
:1007800045F255504FF0402108604000086000BF1E
:10079000601CC4B2B442E8DBADB100BF3748806929
:1007A00000F080000028F9D03748407833490860CD
:1007B00000BF3248806900F080000028F9D032483C
:1007C00000782E49086000BF2C48806900F00800BE
:1007D0000028F9D12948006B40F4007027490863CC
:1007E000F0BD70B505460C4620480078F8B12548A4
:1007F000406D00F00200D0B11C480078207000204D
:100800001A49087022782349284600F0ACFA4FF6BE
:10081000FF701D49088021782846FFF77DFF1A48A0
:10082000008808B9012070BD4FF0FF30FBE70020C1
:10083000F9E71249C96B01F01001B1B10F4909681C
:10084000C8B21049496D01F0020111B10021074AF7
:10085000117006490A780978491C044B19700D4932
:1008600088540021074A1160516570470C30002000
:10087000A1AA5585010001D08801004000900940DF
:100880002700010000A008400E300020381300208F
:10089000381200202031002010B54C4A93071A600E
:1008A0009207D26842F08072DA60494A494B1A6076
:1008B0001A07126942F400021B071A610022464B14
:1008C0005A6027229A6001229A65DA605E2202F05D
:1008D0001F040123A3405409A40004F1E024C4F838
:1008E000003100BF394A3D4B1A6048F260029A60FD
:1008F0004FF07042C3F83C2101225A6000210020D1
:1009000013E000F13C02012303EB0222334B1A6196
:1009100000BF324A526902F00102002AF9D02F4A80
:100920009269C2F30B021144401C0428E9DB8910D0
:1009300000222B4B1A60294A926861F31F52274B01
:100940009A603F22C3F8242125225A600122224BBB
:10095000DA6010BD18B54FF48002224B9A601E4A2F
:10096000526D22F001021C4B5A651C491C311C4A75
:100970000C3A12681C4B1A60002015E051F8202038
:1009800000921A4B009A23F81020194A1288B2F5E7
:10099000806F08DABDF80020164B03EBC023144C1F
:1009A000248823F81420401C0628E7DB104A12880C
:1009B000B2F5806F04DA0E4A1288521C0C4B1A8072
:1009C0004FF48002074BDA6018BD0000A1AA5585DC
:1009D0004F0001003401004000B0084000A00A4070
:1009E0003CA10A4000400840143000202032002082
:1009F000103000202C32002010B55A4881070860C2
:100A00008007C06840F08060C86057485749086058
:100A100000205749C8600860486002208865554832
:100A2000006888604FF4606048628862602000F06F
:100A300085F810BD10B50446032C0ED1602000F0DF
:100A400088F800204A49C86008608815486301207A
:100A50008863602000F072F800BF00BF10BD10B5C1
:100A600000204349486508468068434909680844AE
:100A700041490860084600684049884205D1032082
:100A8000FFF7D8FF00203C49086010BD2DE9F04772
:100A900081460C46B9F1030F2BD1602000F059F8C4
:100AA00033488460204600F0B6FA0746344A354B96
:100AB00000F0C4FA054600F081FA2D49486120464D
:100AC00000F0A9FA05462E4A2E4B00F0B7FA074669
:100AD00000F074FA264988614FF4106048630920D9
:100AE0008863002008600120C860602000F026F8BC
:100AF00000BF00BFBDE8F087012804D002280BD05A
:100B000003281AD111E0642903DB6322184B1A6110
:100B100001E0174A116100BF642903DB6322144B13
:100B20005A6101E0124A516100BF642903DB63226C
:100B30000F4B9A6101E00E4A9161704700F01F026D
:100B4000012191404209920002F1E022C2F8001115
:100B5000704700F01F02012191400B4A430942F8FF
:100B600023107047A1AA5585270001003C010040D1
:100B700000D00840183000201C300020C0C62D00D6
:100B80009A9999999999C93F80E100E027480047CF
:100B9000FEE7FEE7FEE7FEE7FEE7FEE7FEE7FEE72D
:100BA000FEE7FEE7FEE7FEE7FEE7FEE7FEE7FEE71D
:100BB000FEE7FEE7FEE7FEE7FEE7FEE7FEE7FEE70D
:100BC000FEE7FEE7FEE7FEE7FEE7FEE7FEE7FEE7FD
:100BD000FEE7FEE7FEE7FEE7FEE7FEE7FEE7FEE7ED
:100BE000FEE7FEE7FEE7FEE7FEE7FEE7FEE7FEE7DD
:100BF000FEE7FEE7FEE7FEE7FEE7FEE7FEE7FEE7CD
:100C0000FEE7FEE7FEE7FEE7FEE7FEE7FEE7FEE7BC
:100C1000FEE7FEE7FEE7FEE7FEE7FEE7FEE7FEE7AC
:100C200003480449044A054B70470000390200207C
:100C3000906A002090720020906E0020906E00203C
:100C40000FB41CB5074B06AA7B4469460090059873
:100C500000F02FF90020694600F03EF91CBC5DF859
:100C600014FB00008D0200002DE9F0410E46044601
:100C7000002020622046E168884730B3252805D04F
:100C8000D4E901219047206A401CF2E7E168204640
:100C900000278847050018D0A5F14100192802D87F
:100CA00020354FF400673246294620462760FFF77B
:100CB000FDFA40B1012804D0F61D26F007060836DB
:100CC000D8E7361DD6E72846DAE7206ABDE8F08186
:100CD00070B504460D4621461068AFF300802188A8
:100CE000090502D50F4A7A4402E00E4A7A440E32D0
:100CF000002104F1240305E000F00F060009965DD1
:100D00005E54491C0028F7D120780023000704D541
:100D1000702D02D009B1022311322046BDE8704087
:100D200000F069B84E07000010B5431C02E010F84F
:100D3000011B71B18107FAD14FF0013202C88C1A40
:100D40008C4314EAC211F9D0C01A0A0603D0C01E9F
:100D500010BDC01A10BD0A0401D0801E10BD0902CA
:100D6000FCD0401E10BD032A40F2308010F0030C6E
:100D700000F0158011F8013BBCF1020F624498BFEE
:100D800011F801CB00F8013B38BF11F8013BA2F18B
:100D9000040298BF00F801CB38BF00F8013B11F006
:100DA000030300F09E80083AC0F0088051F8043B2D
:100DB000083A51F804CBA0E80810F5E7121D5CBF13
:100DC00051F8043B40F8043BAFF30080D20724BF46
:100DD00011F8013B11F801CB48BF11F8012B24BFDA
:100DE00000F8013B00F801CB48BF00F8012B704729
:100DF0007047704770472DE9F0470D469946924677
:100E0000044600F124080168880604D5E06921F051
:100E10001001216000E00120A84201DD471B00E035
:100E20000027A1697A1902EB0900081AA06120784D
:100E3000C00602D42046AFF30080002608E0D4E9C3
:100E400001211AF806009047206A401C761C206297
:100E50004E45F4DB2078C0060AD52046AFF300806B
:100E600006E0D4E9012130209047206A401C20622E
:100E7000381EA7F10107F4DC07E0D4E9012118F8D6
:100E800005009047206A401C2062281EA5F101053C
:100E9000F3DC2046AFF300802078000602D5022064
:100EA000BDE8F0870120FBE701694A1C0261087870
:100EB000704700B58FB0CDE901310021059105499A
:100EC0007944CDE9031011466846FFF7CDFE0FB017
:100ED00000BD0000E5FFFFFF0A6802F8010B0A6091
:100EE000704710B5203AC0F00B80B1E81850203A96
:100EF000A0E81850B1E81850A0E81850BFF4F5AFBA
:100F00005FEA027C24BFB1E81850A0E8185044BF43
:100F100018C918C0BDE810405FEA827C24BF51F8B0
:100F2000043B40F8043B08BF7047D20728BF31F8A4
:100F3000023B48BF11F8012B28BF20F8023B48BFF5
:100F400000F8012B7047754600F02CF8AE460500FE
:100F50006946534620F00700854618B020B5FFF7D4
:100F60005FFEBDE820404FF000064FF000074FF055
:100F700000084FF0000B21F00701AC46ACE8C009B7
:100F8000ACE8C009ACE8C009ACE8C0098D467047C0
:100F900010B50446AFF300802046BDE81040FFF7CF
:100FA00097B90000004870472C6A002001491820BA
:100FB000ABBEFEE726000200704700004FEA115367
:100FC000A3F58063D3F11E03A8BFD3F1200C08DB87
:100FD0004FF0004242EAC12252EA505232FA03F084
:100FE000704709420BD4102BC4BF0020704703F593
:100FF000787CBCF1FF3F05D04FF0FF3070474FF0D9
:101000000000704770B500F0C3F800BF499224801B
:1010100000207047F0E7B0FA80F310FA03F10AD02D
:10102000C3F11D0303F580634FEA41504FEA0352B9
:1010300002EBD12170474FF000007047DFF848C144
:1010400070B51CEA111E1EBF1CEA13159EEA0C0F98
:1010500095EA0C0F00F06F8081EA030423EA4C1339
:101060004EEAD47E21EA4C1141F4801143F48013FE
:10107000AE44A1FB024CA0FB0365AEF17F7E3619A6
:1010800055EB0C05A1FB034C4CF10003A0FB021C2B
:1010900016EB0C06654153F10003094218BF46F0F8
:1010A000010613F4007F0BD14FEA03314FEA0530FC
:1010B000340341EA155140EA16506FF003020AE08A
:1010C0004FEAC3214FEAC520F40241EA555140EAF4
:1010D00056506FF0020202EB2E4201EB025585EAF8
:1010E000CE710AD05FEA440C18BF24F0004450F1DE
:1010F000000041F1000120EAD47040F2FE7C62451C
:1011000000D270BDA84214BF4FF080444FF040445D
:10111000002E08BF0024BEF1806FA8BFA1F1C0411E
:10112000BDE8704080F282804FF0000001F1C041C4
:1011300001F0004170479EEA0C0F0CEA131518BF2E
:1011400095EA0C0F06D04FF0000081EA030E0EF076
:10115000004170BD00F01CF88900013E00F007B8A6
:1011600000F009B84FEA430C5FEA5C5C08D081EA02
:10117000030100F05BB84FEA410C5FEA5C5CF6D11A
:101180004FF00000014970470000FF070000F87FA2
:101190000EF1020E2EF0030E5EF8046B364205D4FB
:1011A000012A43EB030515F5001F12D8012841EB76
:1011B000010C1CF5001F0CD80ED14FEAD17C15F59F
:1011C000001F0CEB4C0C0CF1020C08BF4CEBD37C59
:1011D00004E04FF0080C01E04FEAD37C0CEB4C0527
:1011E00026FA05F606F00706B6F1040C06D20EEB59
:1011F000860CBDE870404CF0010C6047DFE80CF055
:10120000090B02024FF000414FF00000A1F5002150
:1012100070BD19461046012851EB010418BFD4F5E2
:10122000001484BF002001F0004170BD0808A0F543
:1012300000114FEA3101704700C0C101C30302C26F
:10124000C60607C705C5C404CC0C0DCD0FCFCE0E06
:101250000ACACB0BC90908C8D81819D91BDBDA1A76
:101260001EDEDF1FDD1D1CDC14D4D515D71716D6E6
:10127000D21213D311D1D010F03031F133F3F23256
:1012800036F6F737F53534F43CFCFD3DFF3F3EFEC6
:10129000FA3A3BFB39F9F83828E8E929EB2B2AEA36
:1012A000EE2E2FEF2DEDEC2CE42425E527E7E626A6
:1012B00022E2E323E12120E0A06061A163A3A26216
:1012C00066A6A767A56564A46CACAD6DAF6F6EAE86
:1012D000AA6A6BAB69A9A86878B8B979BB7B7ABAF6
:1012E000BE7E7FBF7DBDBC7CB47475B577B7B67666
:1012F00072B2B373B17170B05090915193535292D6
:1013000096565797559594549C5C5D9D5F9F9E5E45
:101310005A9A9B5B99595898884849894B8B8A4AB5
:101320004E8E8F4F8D4D4C8C448485458747468625
:10133000824243834181804000C1814001C080419D
:1013400001C0804100C1814001C0804100C1814095
:1013500000C1814001C0804101C0804100C1814085
:1013600000C1814001C0804100C1814001C0804175
:1013700001C0804100C1814001C0804100C1814065
:1013800000C1814001C0804100C1814001C0804155
:1013900001C0804100C1814000C1814001C0804145
:1013A00001C0804100C1814001C0804100C1814035
:1013B00000C1814001C0804101C0804100C1814025
:1013C00000C1814001C0804100C1814001C0804115
:1013D00001C0804100C1814000C1814001C0804105
:1013E00001C0804100C1814001C0804100C18140F5
:1013F00000C1814001C0804100C1814001C08041E5
:1014000001C0804100C1814001C0804100C18140D4
:1014100000C1814001C0804101C0804100C18140C4
:1014200000C1814001C0804100C1814001C08041B4
:1014300001C0804100C1814030313233343536370C
:101440003839414243444546403058003031323308
:101450003435363738396162636465664030780008
:1014600080140020003000202000000074020020C2
:10147000A0140020203000207042000090020020C4
:10148000000000000000000000000000000000005C
:10149000000000000000000040420F0000000000BB
:04000005200002399C
:00000001FF
