:020000042000DA
:10000000B84A0020F10B0020F50B0020F70B002070
:10001000F90B0020FB0B0020FD0B0020000000006E
:10002000000000000000000000000000FF0B0020A6
:100030000000000000000000010C0020030C002064
:1000400000000000000000000000000000000000B0
:1000500000000000000000000000000000000000A0
:100060000000000000000000000000000000000090
:100070000000000000000000000000000000000080
:100080000000000000000000000000000000000070
:100090000000000000000000000000000000000060
:1000A0000000000000000000000000000000000050
:1000B0000000000000000000000000000000000040
:1000C000050C0020070C0020090C00200B0C002060
:1000D0000D0C00200F0C0020110C0020130C002030
:1000E000150C0020170C0020190C00201B0C002000
:1000F0001D0C00201F0C0020210C0020230C0020D0
:10010000250C0020270C0020290C00202B0C00209F
:100110002D0C002000000000000000000000000086
:1001200000000000000000000000000000000000CF
:1001300000000000000000000000000000000000BF
:1001400000000000000000000000000000000000AF
:10015000000000000000000000000000000000009F
:10016000000000000000000000000000000000008F
:10017000000000000000000000000000000000007F
:100180000000000000000000000000002F0C002014
:10019000310C0020330C0020350C0020370C0020DF
:1001A000390C00203B0C00203D0C00203F0C0020AF
:1001B000410C0020430C0020450C0020470C00207F
:1001C000C30A00204B0C00204D0C00204F0C0020D7
:1001D000510C0020530C0020550C0020570C00201F
:1001E000590C00205B0C00205D0C00205F0C0020EF
:1001F000C3080020630C0020650C0020670C002061
:10020000690C00206B0C00206D0C00206F0C00208E
:10021000710C0020730C0020750C0020D9090020FF
:10022000790C00207B0C00207D0C00207F0C00202E
:10023000810C0020830C002000F002F800F042F84E
:100240000AA090E8000C82448344AAF10107DA4531
:1002500001D100F037F8AFF2090EBAE80F0013F041
:10026000010F18BFFB1A43F001031847D413000015
:10027000F4130000103A24BF78C878C1FAD85207A6
:1002800024BF30C830C144BF04680C607047000010
:100290000023002400250026103A28BF78C1FBD88F
:1002A000520728BF30C148BF0B607047642900F077
:1002B0003585782900F06E85002070471FB51FBD79
:1002C00010B510BD00F029FF1146FFF7F7FF00F051
:1002D0001DF900F047FF03B4FFF7F2FF03BC00F085
:1002E0004FFF00006C486D4908606D486D4908601B
:1002F0006C48F038D0F8000140F080506949F0397E
:10030000C1F800010846D0F8100140F08050C1F853
:1003100010010846D0F8200140F08050614930318A
:1003200008605F4860490860002048658865C865C6
:10033000086648665A48810708608007C0685B49BC
:1003400008434FF08041C86059485A4908605448F2
:1003500059490860C017886358495748416358494C
:10036000416258490163584901625849C1654FF0DB
:10037000FF30514988644A4855490860C01788636E
:10038000000C88620020886152495148C1624FF0D8
:10039000A041C1610F210163052101620021416378
:1003A00041624FF460204A49086102214848C16512
:1003B000C0044749886500208864474808640020D5
:1003C000086537484549086045488863C043C863A5
:1003D0000104424841634FF0085141624FF0FF3041
:1003E0003E498862002088613E4888642C483E4926
:1003F0000860C01788633D493B48016202214162A1
:100400006FF040403849886539493748C1653948F7
:1004100035498864224838490860C0178863000657
:100420008862002088614FF6FF713348016348F607
:100430008801016245F6FF702F498865FF212E482B
:10044000C16517482D4908602D48486040F22130A9
:10045000C8601348810708604FF0C050086500BFAE
:100460004FF08040006E00F480100028F8D025483E
:100470008107886700BF4FF08040806F00F0805098
:100480000028F8D00820C1064860002088601E4877
:1004900008498031086070470000002008ED00E046
:1004A000A1AA5585F01000400030004000E0030490
:1004B000270001003C01004000000840FF0FFF0042
:1004C000CC0CCC000000FFF00000CCC0000F3C00C2
:1004D00000100840F00F00F00F86010000200840D7
:1004E000FF00C0FFFF00C03F003008400020200296
:1004F000C0FC03F00080173E004008400050004060
:1005000061030004010800580700011094B0FFF7D0
:10051000E9FE00F013F900F0A1FA00F005FA63A17A
:10052000644800F0BFFB634800F0E7FCC4B200225F
:100530002146604800F050F9B7E05FA15D4800F047
:10054000B1FB00BF45F255504FF04021086040001C
:10055000086000BF13A9574800F08BF90028EBD0C2
:1005600054480078412850D1772000F01F02012123
:100570009140534A430942F8231000BF1C225149BD
:100580000CA800F0D9FC772000F01F020121914057
:100590004209920002F1E022C2F8001100BFBDF84A
:1005A0004A00BDF84810BDF84620BDF84430CDE9FA
:1005B0000832CDE90A10BDF84200BDF84010BDF880
:1005C0003E20BDF83C30CDE90432CDE90610BDF83F
:1005D0003A00BDF83810BDF83620BDF83430CDE90A
:1005E0000032CDE90210BDF83230BDF8302036A11E
:1005F000304800F057FB2F4800F07FFCC4B20022C7
:1006000021462C4800F0E8F84FE02A4800784228BC
:100610000FD13C4842683CA1264800F043FB2548E6
:1006200000F06BFCC4B200222146224800F0D4F84E
:100630003BE020480078522804D14FF48030344900
:10064000886032E01B48007854282ED11948407841
:10065000302810D1032000F01FFA2EA1154800F019
:1006600021FB144800F049FCC4B200222146114885
:1006700000F0B2F819E00F484078312815D10D4844
:100680008078294991FBF0F42146032000F030FAEC
:1006900026A1084800F006FB064800F02EFCC4B274
:1006A00000222146034800F097F846E75354415290
:1006B000540A0D000C40002072656164790A0D0037
:1006C00080E100E00C4200202534642025346420C1
:1006D00025346420253464202534642025346420A6
:1006E0002534642025346420253464202534642096
:1006F0002534642025346420253464202534640A9C
:100700000D0000000050004025580A0D00000000B8
:100710000040084050574D2069732064697361623E
:100720006C650A0D0000000040420F0054696D65C1
:10073000206973207365740A0D00000000206F4962
:1007400008706F48810708608007006940F040002A
:1007500008616C486C4908600B206C4948620020B5
:1007600088626020C8621020886340F2013008630C
:100770008007C06840F400008904C8606448C1F87C
:1007800030014FF47A70634988600120C8606C20A2
:1007900000F01F02012191404209920002F1E02283
:1007A000C2F8001100BF704710B50A460FE010F8FC
:1007B000013B594C647883EA0401574B1B78574C32
:1007C000645C6340544C6370554B5B5C2370131E38
:1007D000A2F10102EBD110BDF0B507460E46154659
:1007E0004A48006B20F40070484908631DB1314647
:1007F0003846FFF7D9FF002414E000BF4348806962
:1008000000F080000028F9D0385D4049086000BF42
:1008100045F255504FF0402108604000086000BF8D
:10082000601CC4B2B442E8DBADB100BF3748806998
:1008300000F080000028F9D037484078334908603C
:1008400000BF3248806900F080000028F9D03248AB
:1008500000782E49086000BF2C48806900F008002D
:100860000028F9D12948006B40F40070274908633B
:10087000F0BD70B505460C4620480078F8B1254813
:10088000406D00F00200D0B11C48007820700020BC
:100890001A49087022782349284600F04DFB4FF68C
:1008A000FF701D49088021782846FFF77DFF1A4810
:1008B000008808B9012070BD4FF0FF30FBE7002031
:1008C000F9E71249C96B01F01001B1B10F4909688C
:1008D000C8B21049496D01F0020111B10021074A67
:1008E000117006490A780978491C044B19700D49A2
:1008F00088540021074A116051657047004000206C
:10090000A1AA5585010001D088010040009009404E
:100910002700010000A00840024000201815002018
:10092000181400200C41002010B5434A93071A60A8
:100930009207126942F400021A613F4A3F4B1A6063
:100940003F4A9A6052063F4B1A6001223B4B5A6065
:100950000021002013E000F13C02012303EB0222FE
:10096000364B1A6100BF354A526902F00102002A73
:10097000F9D0324A9269C2F30B021144401C042898
:10098000E9DB891000222F4B1A602C4A926861F330
:100990001F522A4B9A60002003E000222A4B1A546F
:1009A000401C0E28F9DB294A244BDA60284A254BE3
:1009B000183B1A60214BC3F8382125225A60772250
:1009C00002F01F040123A3405409A40004F1E02411
:1009D000C4F8003100BF10BD08B525E0174A926980
:1009E0000092BDF80200BDF800100E281CDA194A6A
:1009F00032F810200A44174B23F81020124A125CD8
:100A0000521C114B1A541A46125C0F2A0CDB114A65
:100A100032F81020D210104B23F8102000220A4B7D
:100A20001A540C4B23F81020044A526902F00102B8
:100A3000002AD3D108BD0000A1AA558500A00A4014
:100A4000F8FF0F003CA10A404442002004000001CE
:100A5000FF3F8000284200200C42002010B55A4879
:100A6000810708608007C06840F08060C860574810
:100A70005749086000205749C86008604860022054
:100A800088655548006888604FF4606048628862F5
:100A9000602000F085F810BD10B50446032C0ED17F
:100AA000602000F088F800204A49C8600860881576
:100AB000486301208863602000F072F800BF00BF27
:100AC00010BD10B500204349486508468068434979
:100AD000096808444149086008460068404988425E
:100AE00005D10320FFF7D8FF00203C49086010BD66
:100AF0002DE9F04781460C46B9F1030F2BD1602058
:100B000000F059F833488460204600F074FB074633
:100B1000344A354B00F082FB054600F03FFB2D497F
:100B20004861204600F067FB05462E4A2E4B00F038
:100B300075FB074600F032FB264988614FF41060D0
:100B4000486309208863002008600120C860602095
:100B500000F026F800BF00BFBDE8F087012804D0F0
:100B600002280BD003281AD111E0642903DB632289
:100B7000184B1A6101E0174A116100BF642903DBB9
:100B80006322144B5A6101E0124A516100BF64298B
:100B900003DB63220F4B9A6101E00E4A91617047BB
:100BA00000F01F02012191404209920002F1E0226F
:100BB000C2F80011704700F01F02012191400B4A5A
:100BC000430942F823107047A1AA55852700010068
:100BD0003C01004000D008400440002008400020B4
:100BE00080841E009A9999999999C93F80E100E003
:100BF00027480047FEE7FEE7FEE7FEE7FEE7FEE7E1
:100C0000FEE7FEE7FEE7FEE7FEE7FEE7FEE7FEE7BC
:100C1000FEE7FEE7FEE7FEE7FEE7FEE7FEE7FEE7AC
:100C2000FEE7FEE7FEE7FEE7FEE7FEE7FEE7FEE79C
:100C3000FEE7FEE7FEE7FEE7FEE7FEE7FEE7FEE78C
:100C4000FEE7FEE7FEE7FEE7FEE7FEE7FEE7FEE77C
:100C5000FEE7FEE7FEE7FEE7FEE7FEE7FEE7FEE76C
:100C6000FEE7FEE7FEE7FEE7FEE7FEE7FEE7FEE75C
:100C7000FEE7FEE7FEE7FEE7FEE7FEE7FEE7FEE74C
:100C8000FEE7FEE703480449044A054B70470000AD
:100C900039020020B8420020B84A0020B84600209F
:100CA000B84600200FB41CB5074B06AA7B44694622
:100CB0000090059800F0E7F90020694600F0F6F989
:100CC0001CBC5DF814FB0000FD03000070B5044679
:100CD00085690068C10601D5302600E02026C007DE
:100CE00007D070BDD4E9012130469047206A401CEE
:100CF00020626D1EF6D570BD70B50446856900781A
:100D0000C00707D170BDD4E9012120209047206A97
:100D1000401C20626D1EF6D570BD00002DE9F0412B
:100D20000646002410687529314616A510D0AFF389
:100D30000080002802DA404213A507E031688A07E4
:100D400001D512A502E0490704D511A5012401E04F
:100D5000AFF3008000210A2206F1240709E0B0FB6E
:100D6000F2FCB0FBF2F302FB1C0030307854184662
:100D7000491C0028F3D123462A463046BDE8F041FD
:100D800000F022B9000000002D0000002B00000040
:100D90002000000070B504460D4621461068AFF3F0
:100DA00000802188090502D50F4A7A4402E00E4AE4
:100DB0007A440E32002104F1240305E000F00F060E
:100DC0000009965D5E54491C0028F7D12078002365
:100DD000000704D5702D02D009B10223113220463C
:100DE000BDE8704000F0F0B86A0800002DE9F04757
:100DF0004FF0000A89460446C0F820A02046E1686A
:100E00008847002876D0252806D0D4E901219047CC
:100E1000206A401C2062F1E7E168204600258847EF
:100E2000C4F81CA006460027C4F818A02A2E09D032
:100E3000304600F0ACF938B304EB8708303EC8F810
:100E4000186019E059F8041B204604EB87029161F1
:100E5000E1688847012F064618D1E069002820DAAA
:100E600025F020051DE0D8F8180000EB800006EB07
:100E700040003038C8F818002046E1688847064628
:100E800000F085F90028EED1012F0AD02E2E08D1CE
:100E90002046E16888477F1C0646022F45F0200562
:100EA000C4DBA069002803DA404245F00105A061D7
:100EB000E80701D025F01005B6B1A6F141001928C8
:100EC00002D8203645F400654A4631462046256062
:100ED0004D46FFF7EBF958B1012806D0ED1D25F07E
:100EE000070000F1080989E704E005F1040985E736
:100EF00030468AE7206ABDE8F08710B5431C02E05F
:100F000010F8011B71B18107FAD14FF0013202C80C
:100F10008C1A8C4314EAC211F9D0C01A0A0603D005
:100F2000C01E10BDC01A10BD0A0401D0801E10BD25
:100F30000902FCD0401E10BD032A40F2308010F0A0
:100F4000030C00F0158011F8013BBCF1020F624464
:100F500098BF11F801CB00F8013B38BF11F8013BF5
:100F6000A2F1040298BF00F801CB38BF00F8013BA2
:100F700011F0030300F09F80083AC0F0088051F898
:100F8000043B083A51F804CBA0E80810F5E7121D1D
:100F90005CBF51F8043B40F8043BAFF30080D2073C
:100FA00024BF11F8013B11F801CB48BF11F8012B08
:100FB00024BF00F8013B00F801CB48BF00F8012B2B
:100FC00070477047704770472DE9F0470D469946C6
:100FD0009246044600F124080168880604D5E069B9
:100FE00021F01001216000E00120A84201DD471B33
:100FF00000E00027A1697A1902EB0900081AA06134
:101000002078C00602D42046FFF760FE002608E0E4
:10101000D4E901211AF806009047206A401C761C8A
:1010200020624E45F4DB2078C0060AD52046FFF743
:101030004DFE06E0D4E9012130209047206A401C93
:101040002062381EA7F10107F4DC07E0D4E9012192
:1010500018F805009047206A401C2062281EA5F160
:101060000105F3DC2046FFF747FE2078000602D595
:101070000220BDE8F0870120FBE7000001694A1C5F
:1010800002610878704700B58FB0CDE901310021C9
:10109000059105497944CDE9031011466846FFF7EB
:1010A000A5FE0FB000BD0000E5FFFFFF0A6802F8D3
:1010B000010B0A60704710B5203AC0F00B80B1E810
:1010C0001850203AA0E81850B1E81850A0E818507D
:1010D000BFF4F5AF5FEA027C24BFB1E81850A0E886
:1010E000185044BF18C918C0BDE810405FEA827CA0
:1010F00024BF51F8043B40F8043B08BF7047D207B7
:1011000028BF31F8023B48BF11F8012B28BF20F857
:10111000023B48BF00F8012B7047754600F02CF8E1
:10112000AE4605006946534620F00700854618B0D4
:1011300020B5FFF7A7FDBDE820404FF000064FF0B7
:1011400000074FF000084FF0000B21F00701AC46FC
:10115000ACE8C009ACE8C009ACE8C009ACE8C0091B
:101160008D46704710B50446AFF300802046BDE8B9
:101170001040FFF7B0B8000000487047544200200C
:1011800001491820ABBEFEE7260002007047303848
:101190000A2801D201207047002070474FEA1153FE
:1011A000A3F58063D3F11E03A8BFD3F1200C08DBA5
:1011B0004FF0004242EAC12252EA505232FA03F0A2
:1011C000704709420BD4102BC4BF0020704703F5B1
:1011D000787CBCF1FF3F05D04FF0FF3070474FF0F7
:1011E0000000704770B500F0C3F800BF499224803A
:1011F00000207047F0E7B0FA80F310FA03F10AD04C
:10120000C3F11D0303F580634FEA41504FEA0352D7
:1012100002EBD12170474FF000007047DFF848C162
:1012200070B51CEA111E1EBF1CEA13159EEA0C0FB6
:1012300095EA0C0F00F06F8081EA030423EA4C1357
:101240004EEAD47E21EA4C1141F4801143F480131C
:10125000AE44A1FB024CA0FB0365AEF17F7E3619C4
:1012600055EB0C05A1FB034C4CF10003A0FB021C49
:1012700016EB0C06654153F10003094218BF46F016
:10128000010613F4007F0BD14FEA03314FEA05301A
:10129000340341EA155140EA16506FF003020AE0A8
:1012A0004FEAC3214FEAC520F40241EA555140EA12
:1012B00056506FF0020202EB2E4201EB025585EA16
:1012C000CE710AD05FEA440C18BF24F0004450F1FC
:1012D000000041F1000120EAD47040F2FE7C62453A
:1012E00000D270BDA84214BF4FF080444FF040447C
:1012F000002E08BF0024BEF1806FA8BFA1F1C0413D
:10130000BDE8704080F282804FF0000001F1C041E2
:1013100001F0004170479EEA0C0F0CEA131518BF4C
:1013200095EA0C0F06D04FF0000081EA030E0EF094
:10133000004170BD00F01CF88900013E00F007B8C4
:1013400000F009B84FEA430C5FEA5C5C08D081EA20
:10135000030100F05BB84FEA410C5FEA5C5CF6D138
:101360004FF00000014970470000FF070000F87FC0
:101370000EF1020E2EF0030E5EF8046B364205D419
:10138000012A43EB030515F5001F12D8012841EB94
:10139000010C1CF5001F0CD80ED14FEAD17C15F5BD
:1013A000001F0CEB4C0C0CF1020C08BF4CEBD37C77
:1013B00004E04FF0080C01E04FEAD37C0CEB4C0545
:1013C00026FA05F606F00706B6F1040C06D20EEB77
:1013D000860CBDE870404CF0010C6047DFE80CF073
:1013E000090B02024FF000414FF00000A1F500216F
:1013F00070BD19461046012851EB010418BFD4F501
:10140000001484BF002001F0004170BD0808A0F561
:1014100000114FEA3101704700C0C101C30302C28D
:10142000C60607C705C5C404CC0C0DCD0FCFCE0E24
:101430000ACACB0BC90908C8D81819D91BDBDA1A94
:101440001EDEDF1FDD1D1CDC14D4D515D71716D604
:10145000D21213D311D1D010F03031F133F3F23274
:1014600036F6F737F53534F43CFCFD3DFF3F3EFEE4
:10147000FA3A3BFB39F9F83828E8E929EB2B2AEA54
:10148000EE2E2FEF2DEDEC2CE42425E527E7E626C4
:1014900022E2E323E12120E0A06061A163A3A26234
:1014A00066A6A767A56564A46CACAD6DAF6F6EAEA4
:1014B000AA6A6BAB69A9A86878B8B979BB7B7ABA14
:1014C000BE7E7FBF7DBDBC7CB47475B577B7B67684
:1014D00072B2B373B17170B05090915193535292F4
:1014E00096565797559594549C5C5D9D5F9F9E5E64
:1014F0005A9A9B5B99595898884849894B8B8A4AD4
:101500004E8E8F4F8D4D4C8C448485458747468643
:10151000824243834181804000C1814001C08041BB
:1015200001C0804100C1814001C0804100C18140B3
:1015300000C1814001C0804101C0804100C18140A3
:1015400000C1814001C0804100C1814001C0804193
:1015500001C0804100C1814001C0804100C1814083
:1015600000C1814001C0804100C1814001C0804173
:1015700001C0804100C1814000C1814001C0804163
:1015800001C0804100C1814001C0804100C1814053
:1015900000C1814001C0804101C0804100C1814043
:1015A00000C1814001C0804100C1814001C0804133
:1015B00001C0804100C1814000C1814001C0804123
:1015C00001C0804100C1814001C0804100C1814013
:1015D00000C1814001C0804100C1814001C0804103
:1015E00001C0804100C1814001C0804100C18140F3
:1015F00000C1814001C0804101C0804100C18140E3
:1016000000C1814001C0804100C1814001C08041D2
:1016100001C0804100C1814030313233343536372A
:101620003839414243444546403058003031323326
:101630003435363738396162636465664030780026
:1016400060160020004000200C0000007402002002
:101650006C1600200C400020AC0A00009002002014
:0C1660000000000040420F0000000000ED
:04000005200002399C
:00000001FF
