:020000041000EA
:10000000880A0020790900107D0900107F0900107E
:10001000810900108309001085090010000000000C
:100020000000000000000000000000008709001030
:100030000000000000000000890900108B0900107A
:1000400000000000000000000000000000000000B0
:1000500000000000000000000000000000000000A0
:100060000000000000000000000000000000000090
:100070000000000000000000000000000000000080
:100080000000000000000000000000000000000070
:100090000000000000000000000000000000000060
:1000A0000000000000000000000000000000000050
:1000B0000000000000000000000000000000000040
:1000C0008D0900108F09001091090010930900108C
:1000D0009509001097090010990900109B0900105C
:1000E0009D0900109F090010A1090010A30900102C
:1000F000A5090010A7090010A9090010AB090010FC
:10010000AD090010AF090010B1090010B3090010CB
:10011000B509001000000000000000000000000011
:1001200000000000000000000000000000000000CF
:1001300000000000000000000000000000000000BF
:1001400000000000000000000000000000000000AF
:10015000000000000000000000000000000000009F
:10016000000000000000000000000000000000008F
:10017000000000000000000000000000000000007F
:10018000000000000000000000000000B70900109F
:10019000B9090010BB090010BD090010BF0900100B
:1001A000C1090010C3090010C5090010C7090010DB
:1001B000C9090010CB090010CD090010CF090010AB
:1001C000D1090010D3090010D5090010D70900107B
:1001D000D9090010DB090010DD090010DF0900104B
:1001E000E1090010E3090010E5090010E70900101B
:1001F000E7070010EB090010ED090010EF090010EF
:10020000F1090010F3090010F5090010F7090010BA
:10021000F9090010FB090010FD090010FF0800108B
:10022000010A0010030A0010050A0010070A001056
:10023000090A00100B0A001000F002F800F042F862
:100240000AA090E8000C82448344AAF10107DA4531
:1002500001D100F037F8AFF2090EBAE80F0013F041
:10026000010F18BFFB1A43F001031847E00E00000E
:10027000000F0000103A24BF78C878C1FAD852079E
:1002800024BF30C830C144BF04680C607047000010
:100290000023002400250026103A28BF78C1FBD88F
:1002A000520728BF30C148BF0B607047642900F077
:1002B000F983782900F03284002070471FB51FBDF4
:1002C00010B510BD00F0EDFD1146FFF7F7FF00F08F
:1002D00023F900F00BFE03B4FFF7F2FF03BC00F0BC
:1002E00013FE00006C486D4908606D486D49086058
:1002F0006C48F038D0F8000140F080506949F0397E
:10030000C1F800010846D0F8100140F08050C1F853
:1003100010010846D0F8200140F08050614930318A
:1003200008605F4860490860002048658865C865C6
:10033000086648665A48810708608007C06840F42C
:100340007830C860564859490860C01788635849D2
:1003500056484162574901625749C1654FF0FF3025
:10036000524988644E4855490860C017886354490B
:1003700052484162052101620907C1614FF46020C2
:100380004E49886008614F494C48C16580044B491B
:10039000886547F6017008644B48886440484B49BB
:1003A00008604B4888634FF00851484841620D206F
:1003B000464988614FF070414448C1650220434975
:1003C00088654348401E8864354842490860C01724
:1003D000886341493F4841624FF0202101623F4913
:1003E000C1614FF022303B4988614FF4F0208860B2
:1003F00008613B493748C1656FF0705035498865E1
:1004000038488864264838490860C017886340F235
:1004100006613548C1613548334988613448886090
:1004200008653448086145F255512F48C165324886
:100430002D49886531488864194831490860314838
:10044000486040F22130C8601548810708604FF0CD
:10045000C050086500BF4FF08040006E00F480106F
:100460000028F8D028488107886700BF4FF08040F7
:10047000806F00F080500028F8D00820C106486046
:100480000020886021482249086005482149086009
:100490000B204860704700000000001008ED00E0ED
:1004A000A1AA5585F010004000300040000008402F
:1004B000CC0CCC000000CCC0008A2A0A00100840F6
:1004C0005005DDD05500148AFE00F0490020084098
:1004D000FF00E0FF0030084002000022222202005C
:1004E000EAC003F00060703E004008402222226013
:1004F00000F0570000F0FF00FF8F0255400E00FF94
:10050000005000406103000401080058070001107A
:10051000BC010040004004E08AB0FFF7E3FE00F0B9
:1005200095F900F09DF83DA13E4800F07FFA3D4866
:1005300000F0A7FBC4B2002221463A4800F0DEF8E2
:100540006AE000BF45F255504FF04021086040007E
:10055000086000BF09A9334800F01DF900285BD0EE
:100560003048007841283BD1772000F01F0201215C
:1005700091402D4A430942F8231000BF0E222B4917
:1005800005A800F09DFB772000F01F02012191409B
:100590004209920002F1E022C2F8001100BFBDF84A
:1005A0002000BDF81E10BDF81C20BDF81A30CDE9A2
:1005B0000132CDE90310BDF818000090BDF81630E7
:1005C000BDF814201AA1174800F030FA154800F0C1
:1005D00058FBC4B200222146124800F08FF81BE0FD
:1005E0001048007842280FD11948426819A10D48D7
:1005F00000F01CFA0B4800F044FBC4B20022214674
:10060000084800F07BF807E006480078522803D13C
:100610004FF480301149886093E7000053544152F1
:10062000540A0D000C00002080E100E00C020020C4
:100630002534642025346420253464202534642046
:1006400025346420253464202534640A0D0000001C
:100650000050004025580A0D0000000000400840EE
:1006600000206F4908706F488107086080070069A3
:1006700040F0400008616C486C4908600B206C49F0
:100680004862002088626020C8621020886340F2BF
:10069000013008638007C06840F400008904C86026
:1006A0006448C1F830014FF47A70634988600120D2
:1006B000C8606C2000F01F020121914042099200A5
:1006C00002F1E022C2F8001100BF704710B50A46DF
:1006D0000FE010F8013B594C647883EA0401574B52
:1006E0001B78574C645C6340544C6370554B5B5CA7
:1006F0002370131EA2F10102EBD110BDF0B5074625
:100700000E4615464A48006B20F4007048490863BD
:100710001DB131463846FFF7D9FF002414E000BF71
:100720004348806900F080000028F9D0385D4049D6
:10073000086000BF45F255504FF04021086040006E
:10074000086000BF601CC4B2B442E8DBADB100BFBA
:100750003748806900F080000028F9D03748407899
:100760003349086000BF3248806900F080000028EB
:10077000F9D0324800782E49086000BF2C488069C3
:1007800000F008000028F9D12948006B40F40070FF
:1007900027490863F0BD70B505460C46204800782F
:1007A000F8B12548406D00F00200D0B11C48007837
:1007B000207000201A49087022782349284600F04A
:1007C0007FFA4FF6FF701D49088021782846FFF711
:1007D0007DFF1A48008808B9012070BD4FF0FF3036
:1007E000FBE70020F9E71249C96B01F01001B1B134
:1007F0000F490968C8B21049496D01F0020111B1F1
:100800000021074A117006490A780978491C044BEF
:1008100019700D4988540021074A116051657047CD
:1008200000000020A1AA5585010001D088010040E8
:10083000009009402700010000A0084002000020AD
:1008400024100010240F00100C01002010B5434AA2
:1008500093071A609207126942F400021A613F4A34
:100860003F4B1A603F4A9A6052063F4B1A60012282
:100870003B4B5A600021002013E000F13C020123B1
:1008800003EB0222364B1A6100BF354A526902F06F
:100890000102002AF9D0324A9269C2F30B021144D4
:1008A000401C0428E9DB891000222F4B1A602C4AD7
:1008B000926861F31F522A4B9A60002003E00022E5
:1008C0002A4B1A54401C0728F9DB49F20402244B36
:1008D000DA607F22244B183B1A60214BC3F8382181
:1008E00025225A60772202F01F040123A3405409F5
:1008F000A40004F1E024C4F8003100BF10BD08B525
:1009000025E0174A92690092BDF80200BDF8001078
:1009100007281CDA164A32F810200A44144B23F830
:100920001020124A125C521C104B1A541A46125CC8
:10093000082A0CDB0E4A32F81020D2100D4B23F897
:1009400010200022094B1A54094B23F81020044AA6
:10095000526902F00102002AD3D108BDA1AA55852F
:1009600000A00A40F8FF0F003CA10A40040000204C
:100970001A0200200C02002027480047FEE7FEE78D
:10098000FEE7FEE7FEE7FEE7FEE7FEE7FEE7FEE73F
:10099000FEE7FEE7FEE7FEE7FEE7FEE7FEE7FEE72F
:1009A000FEE7FEE7FEE7FEE7FEE7FEE7FEE7FEE71F
:1009B000FEE7FEE7FEE7FEE7FEE7FEE7FEE7FEE70F
:1009C000FEE7FEE7FEE7FEE7FEE7FEE7FEE7FEE7FF
:1009D000FEE7FEE7FEE7FEE7FEE7FEE7FEE7FEE7EF
:1009E000FEE7FEE7FEE7FEE7FEE7FEE7FEE7FEE7DF
:1009F000FEE7FEE7FEE7FEE7FEE7FEE7FEE7FEE7CF
:100A0000FEE7FEE7FEE7FEE7FEE7FEE703480449F0
:100A1000044A054B7047000039020010880200208C
:100A2000880A002088060020880600200FB41CB524
:100A3000074B06AA7B4469460090059800F0E7F949
:100A40000020694600F0F6F91CBC5DF814FB0000BC
:100A5000FD03000070B5044685690068C10601D534
:100A6000302600E02026C00707D070BDD4E9012160
:100A700030469047206A401C20626D1EF6D570BD3E
:100A800070B5044685690078C00707D170BDD4E908
:100A9000012120209047206A401C20626D1EF6D55F
:100AA00070BD00002DE9F04106460024106875294C
:100AB000314616A510D0AFF30080002802DA40427C
:100AC00013A507E031688A0701D512A502E049079E
:100AD00004D511A5012401E0AFF3008000210A2212
:100AE00006F1240709E0B0FBF2FCB0FBF2F302FBD5
:100AF0001C00303078541846491C0028F3D1234696
:100B00002A463046BDE8F04100F022B9000000005E
:100B10002D0000002B0000002000000070B50446EE
:100B20000D4621461068AFF300802188090502D5E3
:100B30000F4A7A4402E00E4A7A440E32002104F150
:100B4000240305E000F00F060009965D5E54491C81
:100B50000028F7D120780023000704D5702D02D09B
:100B600009B1022311322046BDE8704000F0F0B810
:100B7000EE0500002DE9F0474FF0000A89460446D3
:100B8000C0F820A02046E1688847002876D02528B4
:100B900006D0D4E901219047206A401C2062F1E789
:100BA000E168204600258847C4F81CA006460027B7
:100BB000C4F818A02A2E09D0304600F0ACF938B39A
:100BC00004EB8708303EC8F8186019E059F8041B98
:100BD000204604EB87029161E1688847012F0646B1
:100BE00018D1E069002820DA25F020051DE0D8F8AA
:100BF000180000EB800006EB40003038C8F8180001
:100C00002046E1688847064600F085F90028EED1C5
:100C1000012F0AD02E2E08D12046E16888477F1C7C
:100C20000646022F45F02005C4DBA069002803DA40
:100C3000404245F00105A061E80701D025F010050C
:100C4000B6B1A6F14100192802D8203645F4006556
:100C50004A463146204625604D46FFF727FB58B1EE
:100C6000012806D0ED1D25F0070000F1080989E7ED
:100C700004E005F1040985E730468AE7206ABDE80B
:100C8000F08710B5431C02E010F8011B71B1810719
:100C9000FAD14FF0013202C88C1A8C4314EAC21107
:100CA000F9D0C01A0A0603D0C01E10BDC01A10BD6C
:100CB0000A0401D0801E10BD0902FCD0401E10BDE8
:100CC000032A40F2308010F0030C00F0158011F878
:100CD000013BBCF1020F624498BF11F801CB00F850
:100CE000013B38BF11F8013BA2F1040298BF00F8A4
:100CF00001CB38BF00F8013B11F0030300F09F80E7
:100D0000083AC0F0088051F8043B083A51F804CB87
:100D1000A0E80810F5E7121D5CBF51F8043B40F84D
:100D2000043BAFF30080D20724BF11F8013B11F858
:100D300001CB48BF11F8012B24BF00F8013B00F89C
:100D400001CB48BF00F8012B7047704770477047D0
:100D50002DE9F0470D4699469246044600F12408D5
:100D60000168880604D5E06921F01001216000E0E7
:100D70000120A84201DD471B00E00027A1697A1984
:100D800002EB0900081AA0612078C00602D42046B0
:100D9000FFF760FE002608E0D4E901211AF80600FA
:100DA0009047206A401C761C20624E45F4DB207878
:100DB000C0060AD52046FFF74DFE06E0D4E9012122
:100DC00030209047206A401C2062381EA7F101079E
:100DD000F4DC07E0D4E9012118F805009047206A07
:100DE000401C2062281EA5F10105F3DC2046FFF718
:100DF00047FE2078000602D50220BDE8F0870120DA
:100E0000FBE7000001694A1C02610878704700B5E1
:100E10008FB0CDE901310021059105497944CDE933
:100E2000031011466846FFF7A5FE0FB000BD000095
:100E3000E5FFFFFF0A6802F8010B0A60704710B572
:100E4000203AC0F00B80B1E81850203AA0E81850C2
:100E5000B1E81850A0E81850BFF4F5AF5FEA027C83
:100E600024BFB1E81850A0E8185044BF18C918C0F2
:100E7000BDE810405FEA827C24BF51F8043B40F893
:100E8000043B08BF7047D20728BF31F8023B48BF78
:100E900011F8012B28BF20F8023B48BF00F8012BB6
:100EA0007047754600F02CF8AE460500694653467B
:100EB00020F00700854618B020B5FFF7A7FDBDE874
:100EC00020404FF000064FF000074FF000084FF0B1
:100ED000000B21F00701AC46ACE8C009ACE8C00942
:100EE000ACE8C009ACE8C0098D46704710B50446AF
:100EF000AFF300802046BDE81040FFF7ECB90000DA
:100F0000004870472802002001491820ABBEFEE7C8
:100F100026000200704730380A2801D201207047AD
:100F20000020704700C0C101C30302C2C60607C744
:100F300005C5C404CC0C0DCD0FCFCE0E0ACACB0B09
:100F4000C90908C8D81819D91BDBDA1A1EDEDF1F39
:100F5000DD1D1CDC14D4D515D71716D6D21213D329
:100F600011D1D010F03031F133F3F23236F6F737D9
:100F7000F53534F43CFCFD3DFF3F3EFEFA3A3BFBC9
:100F800039F9F83828E8E929EB2B2AEAEE2E2FEF79
:100F90002DEDEC2CE42425E527E7E62622E2E323E9
:100FA000E12120E0A06061A163A3A26266A6A76719
:100FB000A56564A46CACAD6DAF6F6EAEAA6A6BAB89
:100FC00069A9A86878B8B979BB7B7ABABE7E7FBFB9
:100FD0007DBDBC7CB47475B577B7B67672B2B373A9
:100FE000B17170B050909151935352929656579759
:100FF000559594549C5C5D9D5F9F9E5E5A9A9B5B49
:1010000099595898884849894B8B8A4A4E8E8F4FF8
:101010008D4D4C8C44848545874746868242438368
:101020004181804000C1814001C0804101C08041B8
:1010300000C1814001C0804100C1814000C18140A8
:1010400001C0804101C0804100C1814000C1814098
:1010500001C0804100C1814001C0804101C0804188
:1010600000C1814001C0804100C1814000C1814078
:1010700001C0804100C1814001C0804101C0804168
:1010800000C1814000C1814001C0804101C0804158
:1010900000C1814001C0804100C1814000C1814048
:1010A00001C0804101C0804100C1814000C1814038
:1010B00001C0804100C1814001C0804101C0804128
:1010C00000C1814000C1814001C0804101C0804118
:1010D00000C1814001C0804100C1814000C1814008
:1010E00001C0804100C1814001C0804101C08041F8
:1010F00000C1814001C0804100C1814000C18140E8
:1011000001C0804101C0804100C1814000C18140D7
:1011100001C0804100C1814001C0804101C08041C7
:1011200000C18140303132333435363738394142AD
:101130004344454640305800303132333435363739
:101140003839616263646566403078006C11001064
:10115000000000200C000000740200107811001044
:101160000C0000207C0A000090020010000000002B
:08117000000000000000000077
:0400000510000239AC
:00000001FF
